:100000000C94E0000C9408010C9408010C94080175
:100010000C9408010C9408010C9408010C9408013C
:100020000C9408010C9408010C9408010C9408012C
:100030000C9408010C94430E0C9408010C940801D4
:100040000C94A10D0C9408010C94110E0C94EB0D62
:100050000C9408010C9408010C9408010C940801FC
:100060000C94820C0C94080100407A10F35A00A002
:10007000724E18090010A5D4E80000E87648170071
:1000800000E40B54020000CA9A3B000000E1F505B1
:10009000000080969800000040420F000000A086FB
:1000A00001000000102700000000E803000000002D
:1000B0006400000000000A000000000001000000D1
:1000C00000002C76D888DC674F0823DFC1DFAE59EB
:1000D000E1B1B796E5E3E453C63AE651997696E87E
:1000E000E6C28426EB898C9B62ED407C6FFCEFBC02
:1000F0009C9F40F2BAA56FA5F490055A2AF75C932D
:100100006B6CF9676DC11BFCE0E40D47FEF520E662
:10011000B500D0ED902E0300943577050080841E45
:10012000080000204E0A000000C80C333333330FA0
:10013000986E12831141EF8D2114893BE65516CF3D
:10014000FEE6DB18D1844B381BF77C1D901DA4BB49
:10015000E424203284725E228100C9F124ECA1E5FE
:100160003D270000000023002600290000000008B1
:10017000000201000003040700000000000000006E
:1001800000000000250028002B00000000002400D3
:1001900027002A00040404040404040402020202E6
:1001A000020203030303030301020408102040803A
:1001B0000102040810200102040810206A0ECA156A
:1001C00011241FBECFEFD8E0DEBFCDBF13E0A0E00B
:1001D000B1E0E4ECFBE302C005900D92A230B10760
:1001E000D9F724E0A2E0B3E001C01D92A03CB20721
:1001F000E1F710E0CFEDD0E004C02197FE010E94AE
:10020000C51ACE3DD107C9F70E94790F0C94D51DB0
:100210000C94000090E0FC01E855FE4F24918C56B0
:100220009E4FFC018491882399F090E0880F991FDC
:10023000FC01E657FE4FA591B491FC01E058FE4F3A
:10024000859194918FB7F894EC91E22BEC938FBF4A
:10025000089520918603260F3327331F213231055D
:10026000ECF42091AC03FC0190E080E0243069F0D4
:1002700082E00895A09186032191AC014C595C4F16
:10028000A40FB52FB11D2C930196861798F380917A
:100290008603680F6093860380E0089581E00895E7
:1002A000089508950895E0915B0380915A03E8173B
:1002B00030F4F0E0E65CFC4F808190E008958FEF31
:1002C0009FEF089590915B0380915A032FEF3FEFCA
:1002D000981748F4E92FF0E0E65CFC4F208130E00D
:1002E0009F5F90935B03C901089580915A03909199
:1002F0005B03891B990B0895CF92DF92EF92FF92D7
:100300000F931F93CF93DF937C01CB018A01209140
:100310003903222389F0EB016B01C40ED51ECC15E5
:10032000DD0569F06991D701ED91FC910190F081B3
:10033000E02DC7010995F3CF642F0E942901C80160
:10034000DF91CF911F910F91FF90EF90DF90CF90B1
:100350000895CF93DF931F92CDB7DEB769832091C5
:1003600039032223F9F020915C03203258F021E078
:1003700030E0FC013383228390E080E00F90DF9136
:10038000CF91089580915D03E82FF0E0E75EFC4F88
:10039000998190838F5F80935D0380935C0381E0FC
:1003A00090E0ECCF61E0CE0101960E942901F7CFE9
:1003B00090E0FC01E459FE4F2491FC01E855FE4F0A
:1003C0003491FC01EC56FE4FE491EE23C9F0222358
:1003D00039F0233001F1A8F4213019F1223029F14C
:1003E000F0E0EE0FFF1FE058FE4FA591B4918FB7DC
:1003F000F894EC91611126C030953E233C938FBF59
:1004000008952730A9F02830C9F0243049F78091A9
:1004100080008F7D03C0809180008F778093800063
:10042000DFCF84B58F7784BDDBCF84B58F7DFBCFE5
:100430008091B0008F778093B000D2CF8091B000D0
:100440008F7DF9CF3E2BDACF1092AC0381E0809301
:10045000AE031092AD0361E082E10E94D80161E039
:1004600083E10E94D801E9EBF0E080818E7F8083F8
:1004700080818D7F808388E48093B80085E48093B9
:10048000BC000895CF93DF9391E09093630388239A
:10049000B9F0C091B800D091BA008091BC008A7BBD
:1004A0008093BC0060E082E10E94D80160E083E1BB
:1004B0000E94D8010E942402D093BA00C093B800D1
:1004C000DF91CF9108953FB7F894809115039091F3
:1004D0001603A0911703B091180326B5A89B05C079
:1004E0002F3F19F00196A11DB11D3FBFBA2FA92FB3
:1004F000982F8827BC01CD01620F711D811D911DB0
:1005000042E0660F771F881F991F4A95D1F708951B
:100510008F929F92AF92BF92CF92DF92EF92FF9213
:100520006B017C010E9463024B015C01C114D10488
:10053000E104F104B9F00E946302681979098A099B
:100540009B09683E73408105910580F321E0C21A42
:10055000D108E108F10888EE880E83E0981EA11CFE
:10056000B11CE4CFFF90EF90DF90CF90BF90AF90A1
:100570009F908F9008950895AF92BF92CF92DF928F
:10058000EF92FF920F931F93CF93DF936C017B0148
:100590008B01040F151FEB015E01AE18BF08C017D9
:1005A000D10759F06991D601ED91FC910190F0814C
:1005B000E02DC6010995892B79F7C501DF91CF910F
:1005C0001F910F91FF90EF90DF90CF90BF90AF9071
:1005D0000895FC01538D448D252F30E0842F90E049
:1005E000821B930B541710F0CF960895019708952E
:1005F000FC01918D828D981761F0A28DAE0FBF2FF7
:10060000B11D5D968C91928D9F5F9F73928F90E04C
:1006100008958FEF9FEF0895FC01918D828D9817BB
:1006200031F0828DE80FF11D858D90E008958FEFF8
:100630009FEF0895FC01918D228D892F90E0805CC1
:100640009F4F821B91098F739927089583EE93E042
:100650000E941A0321E0892B09F420E0822F0895DB
:1006600080E090E0892B29F00E94260381110C94F0
:1006700000000895FC01A48DA80FB92FB11DA35A45
:10068000BF4F2C91848D90E001968F739927848FB2
:10069000A689B7892C93A089B1898C9183708064D5
:1006A0008C93938D848D981306C00288F389E02D76
:1006B00080818F7D80830895EF92FF920F931F9327
:1006C000CF93DF93EC0181E0888F9B8D8C8D981305
:1006D0001AC0E889F989808185FF15C09FB7F89411
:1006E000EE89FF896083E889F9898081837080645D
:1006F00080839FBF81E090E0DF91CF911F910F91A8
:10070000FF90EF900895F62E0B8D10E00F5F1F4FB6
:100710000F731127E02E8C8D8E110CC00FB607FCC5
:10072000FACFE889F989808185FFF5CFCE010E9453
:100730003A03F1CFEB8DEC0FFD2FF11DE35AFF4F84
:10074000F0829FB7F8940B8FEA89FB8980818062E1
:10075000CFCFCF93DF93EC01888D8823B9F0AA899E
:10076000BB89E889F9898C9185FD03C0808186FD6C
:100770000DC00FB607FCF7CF8C9185FFF2CF8081BB
:1007800085FFEDCFCE010E943A03E9CFDF91CF91F3
:1007900008950895CF92DF92EF92FF920F931F93E7
:1007A000CF93DF93FC01C48121E020933903C093F0
:1007B000060310925D0310925C038485682B87ED1D
:1007C00093E00E94A901D0915C03D13208F092C05D
:1007D0000E9463026B017C018091AC03811165C0B2
:1007E00082E08093AC0381E08093AE038FEF80932F
:1007F000AB031092D003D093CF03A9E1B3E0EFEAAB
:10080000F3E080E0D81385C01092D1038091D1032A
:10081000CC0FC82BC093D1038091AD03813009F078
:100820007CC01092AD030E9463026B017C01809139
:10083000D1038093BB0080915F0390916003A091EE
:100840006103B0916203892B8A2B8B2B99F00E9454
:10085000630200915F031091600320916103309166
:1008600062036C197D098E099F090617170728076F
:100870003907E0F18091BC0083FDD9CF85EC8093EE
:10088000BC000E9463026B017C018091AC0382304A
:1008900009F445C08091AB038F3F61F18091AB03B8
:1008A000803241F18091AB0325C080915F0390912C
:1008B0006003A0916103B0916203892B8A2B8B2B7B
:1008C00009F48ACF0E94630200915F0310916003D4
:1008D00020916103309162036C197D098E099F0993
:1008E000061717072807390708F076CF80915E03AF
:1008F0000E94420210925D0310925C031092390331
:10090000DF91CF911F910F91FF90EF90DF90CF90EB
:1009100008959D9191938F5F75CF85EEB0CF8091B3
:100920005F0390916003A0916103B0916203892BF2
:100930008A2B8B2B09F4A9CF0E94630200915F03DD
:100940001091600320916103309162036C197D095D
:100950008E099F09061717072807390708F095CF52
:10096000C5CF90E080E00895CF92DF92EF92FF92A2
:1009700020E030E048E453E4609103017091040109
:1009800080910501909106010E94571920E030E006
:1009900040E851E40E9457199B01AC0160EC71EEF4
:1009A00084E69CE40E94381B0E94AA1B9B01AC01B8
:1009B0002093090330930A0340930B0350930C03D5
:1009C000A0EAB0E00E944A1A6B017C0124E130E009
:1009D00040E050E00E94941A2115310581E048075B
:1009E0005105C8F481E080931303309308032093EA
:1009F00007038091070390910803909387008093E9
:100A0000860080911303806180938100FF90EF90B6
:100A1000DF90CF9008952115310588E048075105F2
:100A200060F482E080931303C701B60120EA30E04E
:100A300040E050E00E94941AD8CF2115310580E49F
:100A40004807510550F483E080931303C701B601B2
:100A500020E035E040E050E0EDCF211531054105C3
:100A600081E0580750F484E080931303C701B60176
:100A700020E034E140E050E0DDCF85E080931303D7
:100A8000211531054105544038F4C701B60120E075
:100A900030E540E050E0CECF8FEF9FEF909308031A
:100AA00080930703A6CFCF93FC012381348134FBCD
:100AB000882780F9862736FF04C03F7B3483238351
:100AC00081E02381348131FD05C08823B9F1326092
:100AD000348323839FB7F8944091D3035091D40378
:100AE0006091D5037091D6039FBF21813281DA01D5
:100AF000A21BB30B238134818823F1F125FD20C093
:100B0000818532FD06C0882321F03460348323833D
:100B10000BC08A171B0619F010F0811107C0226262
:100B200034832383508747835283418323813481D5
:100B30002F71332781E0232B09F480E0CF910895B2
:100B400037FDF4CF26FD0AC08385C0E18C9FC0012C
:100B50001124A817B90750F32464D8CF27FF0AC07F
:100B60008485C0E18C9FC00111242868A817B907AB
:100B700068F6DCCF8385F5CF25FF12C081858A1703
:100B80001B0609F080F526FD03C080818F5F8083FE
:100B900037FD10822F7D206131603483238323C091
:100BA00030FF0DC037FD03C0206134832383838170
:100BB00094819E77948383835283418314C0808180
:100BC0008823F1F0C901807C9927892BA1F48285C3
:100BD00040E1849FC0011124A817B90760F4878100
:100BE0009085892B51F48381948192FF9FCF9B7FC5
:100BF000948383839BCF2160D0CF10861782F3CF5D
:100C000031FFF1CF2F733D7F38603483238310860B
:100C10001782D2CFFC018381948193FF18C08FB7D4
:100C2000F8944091D3035091D4036091D50370910F
:100C3000D6038FBF81819281481B590B258580E1A6
:100C4000289F9001112481E04217530708F480E0A7
:100C50000895CF93DF93DC011596ED91FC913097C9
:100C600061F0EC010995CE010E940A06882329F063
:100C70008B819C81977F9C838B83DF91CF9108959B
:100C8000CF92DF92EF92FF92CF93C82F80919F0473
:100C90009091A00480FD10929C049C012F71332739
:100CA000232B29F0807E9093A00480939F04809151
:100CB000AE0485FF03C08F7D8093AE048CE994E081
:100CC0000E9453052091B1043091B20421153105E1
:100CD000C1F19091AE0421FF30C090619093AE04B9
:100CE0009091AE0422FF2BC098609093AE04E3E095
:100CF00036952795EA95E1F73093B2042093B10435
:100D000020919F043091A00425FFDEC0306830930D
:100D1000A00420939F0420919F043091A00433FDF0
:100D200005C038603093A00420939F049091AE04D6
:100D300090629093AE04C1E007C09F7ECFCF977FB3
:100D4000D4CFC7FF12C0C0E0C82B09F4C0C0809147
:100D5000A1049091A204892B09F0C0C08C2FCF91DF
:100D6000FF90EF90DF90CF9008959091AF04292FDE
:100D70002295207F2595259525952595022E000CF9
:100D8000330B4C2F0C2E000C550B24173507D9F2C2
:100D9000220F331F220F331F242B352B220F331F1B
:100DA00041E656E164E979E404C075956795579585
:100DB00047952A95D2F74370959595959595959574
:100DC0009150490F4295407F4595459545954595EC
:100DD000942F9295907F2C2F2F70922B9093AF048D
:100DE000907F09F4B0CF9091AE04292F2370213069
:100DF00009F45BC008F455C0223009F45AC021E060
:100E000014160CF020E092FB332730F9231709F475
:100E100055C021E03091AF043F703093AF04C22E33
:100E2000022E000CDD08EE08FF084091AA04509144
:100E3000AB046091AC047091AD044C0D5D1D6E1D52
:100E40007F1D4093AA045093AB046093AC0470934D
:100E5000AD042130A9F590619093AE049FB7F8944A
:100E60004091D3035091D4036091D5037091D60380
:100E70009FBF20919D0430919E04FA01E21BF30B69
:100E80009F01E091B0049091AE0450939E04409372
:100E90009D04E2171306B1F0A8F098609093AE0499
:100EA0002FCFC33009F04FCFAACFCC2309F4A7CF5F
:100EB0004ACFC150C23008F0A2CF45CF2FEFAACF02
:100EC0009F7ECACF977FEACF10929C0424CF8CE9F3
:100ED00094E00E940A0681113ACF40CF8CE994E059
:100EE0000E9429063BCF0F931F93CF938C01C62FEF
:100EF0000E94CA036C2F6460C8010E94CA036C2F51
:100F00006B7FC8010E94CA0383EC90E00197F1F760
:100F1000CF911F910F9108950F931F93CF93DF935C
:100F20008C01D62FC42F607F642B0E94730780E151
:100F3000D89FB00111246C2BC801DF91CF911F9174
:100F40000F910C947307CF93DF93CDB7DEB728973B
:100F50000FB6F894DEBF0FBECDBF98E0E1E1F1E03F
:100F6000DE01119601900D929A95E1F79091880417
:100F7000961710F46FEF690F262F30E0220F331F02
:100F800041E050E04C0F5D1F240F351FF9016081D7
:100F9000680F606840E080E894E028960FB6F89407
:100FA000DEBF0FBECDBFDF91CF910C948C07CF93E6
:100FB000DF93EB014C815D8123E130E0241B350B95
:100FC00036952795682F81E0820F0E94A3074C81F8
:100FD0005D816881798180E894E0DF91CF910C9404
:100FE000BC0240E061E080E894E00E948C078BE363
:100FF0009FE10197F1F780918904882321F060E057
:1010000080E00C94A307089541E00E948C0781E0E2
:1010100090E0089561E082E00E94D80160E082E003
:101020000E94D8018091020390910303A0910403D0
:10103000B09105034091090350910A0360910B039D
:1010400070910C03840F951FA61FB71F8093020396
:1010500090930303A0930403B093050380910203CC
:1010600090910303A0910403B0910503803492444E
:10107000AF40B105E0F080910E038F5F80930E03C7
:1010800081E080930D038091020390910303A0916E
:101090000403B091050380549244AF40B10980939A
:1010A000020390930303A0930403B09305030895F0
:1010B00090E0FC01EC56FE4FE491F0E0EE0FFF1FD4
:1010C000EE59FE4FA591B4912C9188559E4FFC018D
:1010D0008491822391E009F490E0892F0895FC0126
:1010E00001900020E9F73197AF01481B590BBC0173
:1010F00083EE93E00C94BC028F929F92AF92BF92CA
:101100000F931F93CF93DF93CDB7DEB7A1970FB6A1
:10111000F894DEBF0FBECDBF19A2423008F44AE0FA
:101120008E010F5D1F4F842E912CB12CA12CA50197
:1011300094010E94941AE62FB901CA01EA30F4F42E
:10114000E05DD801EE938D01232B242B252B79F71D
:1011500090E080E0109719F0CD010E946F08A196F1
:101160000FB6F894DEBF0FBECDBFDF91CF911F91B8
:101170000F91BF90AF909F908F900895E95CE1CF61
:10118000CF93DF930E946F08EC0189E491E00E9405
:101190006F088C0F9D1FDF91CF910895CF93DF9340
:1011A000FC01448155816081718183EE93E00E944E
:1011B000BC02EC0189E491E00E946F088C0F9D1F36
:1011C000DF91CF9108958F929F92AF92BF92CF926D
:1011D000DF92EF92FF928CE491E00E94C00888E5D4
:1011E00091E00E946F086091090370910A03809159
:1011F0000B0390910C034AE00E947C0885E691E085
:101200000E94C00889E691E00E946F08C090030127
:10121000D0900401E0900501F0900601A70196012D
:10122000C701B6010E94DE1B882381F088E791E0A8
:101230000E946F0884E891E0FF90EF90DF90CF90DC
:10124000BF90AF909F908F900C94C00846015701BB
:10125000E894B7F82FEF3FEF4FE75FE7C501B40120
:101260000E94DE1B81110DC02FEF3FEF4FE75FE7BC
:10127000C501B4010E94F11818161CF48CE791E026
:10128000D7CF2FEF3FEF4FE75FE4C701B6010E94D2
:10129000D91B18161CF480E891E0CACF2FEF3FEF5E
:1012A0004FE75FECC701B6010E94F11887FDF3CF4D
:1012B00020E030E0A901C701B6010E94F11887FFC4
:1012C00009C06DE283EE93E00E945C03F7FAF094AC
:1012D000F7F8F0942AE037ED43EA5BE3C701B60183
:1012E0000E94CC1A4B015C010E94AA1B6B017C017D
:1012F0000E94F6189B01AC01C501B4010E94CB1AF3
:101300004B015C014AE0C701B6010E947C086EE215
:1013100083EE93E00E945C0320E030E040E251E481
:10132000C501B4010E9457194B015C010E94AA1B20
:101330006B01F12CE12C4AE0C701B6010E947C0848
:10134000C701B6010E94F6189B01AC01C501B401AA
:101350000E94CB1A20E030E040E251E40E9457198D
:101360000E94AA1B90E080E04AE00E947C0862CFC5
:101370002F923F924F925F926F927F928F929F92A5
:10138000AF92BF92CF92DF92EF92FF920F931F9393
:10139000CF93DF9300D000D000D0CDB7DEB74C01A3
:1013A000362E242E2DB73EB73E832D83DC011496B6
:1013B000ED90FC90FA82E9822701B1E04B1A5108C6
:1013C0008701000F111FEDB7FEB7E01BF10B0FB641
:1013D000F894FEBF0FBEEDBF2DB73EB72F5F3F4F56
:1013E00059016901F90190E080E08E159F059CF19B
:1013F000052C000C660877083FEF431A530A630A6E
:10140000730A0A0D1B1D81E0E81AF1080250110948
:101410001E141F0424F50E943816D8010D90BC91AB
:10142000A02DBC83AB83A30192010E942B1A660FEF
:10143000771FF501E60FF71F80819181D8018D9309
:101440009C932B813C813183208331E0431A5108E6
:1014500061087108D8CF819391930196C6CF10E0AF
:1014600000E089819A81081719077CF5D601FC9064
:101470001196EC90B2E0CB0ED11C622D832D8F0D16
:101480000E94A3078F2D9E2DF401248135818217A0
:10149000930728F40190F081E02D309799F4109291
:1014A000D203E2EDF3E041E0608180E894E00E9445
:1014B0008C0766E970E080E090E00E9488020F5F90
:1014C0001F4FCFCFE80FF91FEECF2D813E810FB612
:1014D000F8943EBF0FBE2DBF26960FB6F894DEBF20
:1014E0000FBECDBFDF91CF911F910F91FF90EF9075
:1014F000DF90CF90BF90AF909F908F907F906F9034
:101500005F904F903F902F90089585ED8093BC00A1
:1015100080915F0390916003A0916103B091620399
:101520000796A11DB11D23E0B695A79597958795C0
:101530002A95D1F72091BC0024FD03C01092AC0382
:10154000089540915F035091600360916103709131
:101550006203452B462B472B69F30097A105B10584
:1015600041F02AE22A95F1F700C00197A109B109DB
:10157000E1CF80915E030C944202CF93DF93EC01A4
:1015800088819981009711F00E947F1C198218822E
:101590001D821C821B821A82DF91CF910895FC016B
:1015A00080819181009711F00C947F1C08950F9316
:1015B0001F93CF93DF93EC0188819981009759F0B5
:1015C0002A813B812617370730F081E0DF91CF91E8
:1015D0001F910F9108958B016F5F7F4F0E94081D2F
:1015E000009759F0998388831B830A832C813D815E
:1015F000232B59F7FC011082E8CF80E0E7CFEF9270
:10160000FF920F931F93CF93DF936115710541F400
:1016100080E0DF91CF911F910F91FF90EF9008959F
:1016200041155105B1F07B01EC010C811D81040FC6
:10163000151FB8010E94D70A882351F328813981E8
:101640008C819D81B701820F931F0E94CE1D1D8347
:101650000C8381E0DECFCF93DF93EC01FB0101909F
:101660000020E9F73197AF01461B570B0E94FF0A94
:10167000811103C0CE010E94BD0ACE01DF91CF913E
:101680000895CF93DF93EC01FB0144815581608184
:1016900071810E94FF0A811103C0CE010E94BD0A20
:1016A000CE01DF91CF910895EF92FF920F931F9398
:1016B000CF93DF93EC017B018A01BA010E94D70A24
:1016C00081110BC0CE010E94BD0ACE01DF91CF91E6
:1016D0001F910F91FF90EF9008951D830C83B70128
:1016E000888199810E94CE1DF0CFFB0101900020DE
:1016F000E9F73197AF01461B570B0C94540BEF924F
:10170000FF920F931F93CF93DF93CDB7DEB7A197CF
:101710000FB6F894DEBF0FBECDBF7C01CB01BA017E
:10172000F7011182108213821282158214828E01B7
:101730000F5F1F4F21E043E00E94CE15009789F014
:10174000BC01C7010E94750BA1960FB6F894DEBFCD
:101750000FBECDBFDF91CF911F910F91FF90EF9002
:101760000895C7010E94BD0AEFCF0F931F93CF9337
:10177000DF93CDB7DEB761970FB6F894DEBF0FBE2B
:10178000CDBF8C01CB01F80111821082138212822D
:10179000158214824AE0BE016F5F7F4F0E9490164F
:1017A000BE016F5F7F4FC8010E94750B61960FB637
:1017B000F894DEBF0FBECDBFDF91CF911F910F9187
:1017C00008950F931F93CF93DF93CDB7DEB729977B
:1017D0000FB6F894DEBF0FBECDBF8C01862FF80187
:1017E0001182108213821282158214824AE0BE0195
:1017F0006F5F7F4F90E00E949016BE016F5F7F4F3A
:10180000C8010E94750B29960FB6F894DEBF0FBE73
:10181000CDBFDF91CF911F910F910895FB01DC01A6
:1018200011961C921E9213961C921E921297159658
:101830001C921E9214978617970749F06081718158
:101840006115710521F0448155810C94540B089564
:10185000FC01118210821382128215821482FB0114
:1018600001900020E9F73197AF01461B570B0C940C
:10187000540BDF92EF92FF920F931F93CF93DF935E
:1018800000D000D000D0CDB7DEB783E0E82E81E0F5
:10189000F82E10E000E0F701D1907F01C8010E940E
:1018A000151AD81621F06D2DC8010E941D1A0F5F60
:1018B0001F4F0430110579F76AE070E080E090E096
:1018C0000E94880269E871E0CE0101960E94280C0E
:1018D00066EB74E0CE0101960E94410B0E94CE0897
:1018E000CE0101960E94CF0A26960FB6F894DEBF6D
:1018F0000FBECDBFDF91CF911F910F91FF90EF9061
:10190000DF9008951F920F920FB60F9211242F931C
:101910003F934F935F936F937F938F939F93AF9377
:10192000BF93EF93FF938091B900887F803609F4CD
:101930004AC0F0F5883209F4A7C018F5803109F4DF
:101940009BC0B8F4882309F4F9C0883009F494C026
:10195000FF91EF91BF91AF919F918F917F916F9187
:101960005F914F913F912F910F900FBE0F901F905D
:101970001895883109F488C0803251F78093AB0301
:1019800014C0803409F49DC040F48033B9F3883327
:10199000F9F68093AB0385ECB0C0803509F485C0BF
:1019A000883509F496C0883499F60E94850AD0CF0C
:1019B000883909F48CC038F5883729F050F4883616
:1019C00011F0803729F683E08093AC031092AA03CC
:1019D00057C0883809F47BC0803919F0803809F085
:1019E000B7CF8091AA03803208F071C0E091AA03BA
:1019F00081E08E0F8093AA038091BB00F0E0E65750
:101A0000FC4F80833DC0803B39F0E0F4803A09F41C
:101A100079C0883A09F09CCF84E08093AC0310929F
:101A2000870310928603E0918403F0918503099562
:101A30008091860381110FC081E08093860310920C
:101A4000640309C0803C09F4A6CF883C09F4A3CF05
:101A5000883B09F07DCFE091870381E08E0F809372
:101A60008703F0E0EC59FC4F80818093BB0090919C
:101A700087038091860329C08091D1038093BB00A6
:101A800085EC8093BC0064CF9091D0038091CF030C
:101A9000981758F5E091D00381E08E0F8093D00322
:101AA000F0E0E155FC4F8081E9CFE091D00381E087
:101AB0008E0F8093D0038091BB00F0E0E155FC4F86
:101AC00080839091D0038091CF039817C8F285E866
:101AD000D8CFE091D00381E08E0F8093D003809126
:101AE000BB00F0E0E155FC4F80838091AE03811193
:101AF0005CCF81E08093AD0384EA8093BC001092B8
:101B0000AC0326CF85EC8093BC001092AC0380918F
:101B1000AA03803230F4E091AA03F0E0E657FC4FCC
:101B200010826091AA0370E0E0918803F09189032C
:101B30008AE893E009951092AA030ACF1092AB03AA
:101B400034CF1F920F920FB60F9211242F933F9311
:101B50008F939F93AF93BF938091D3039091D403BE
:101B6000A091D503B091D6033091140323E0230F45
:101B70002D3758F50196A11DB11D209314038093B4
:101B8000D3039093D403A093D503B093D60380914D
:101B9000150390911603A0911703B09118030196B5
:101BA000A11DB11D8093150390931603A0931703F5
:101BB000B0931803BF91AF919F918F913F912F9157
:101BC0000F900FBE0F901F90189526E8230F0296D6
:101BD000A11DB11DD2CF1F920F920FB60F921124EB
:101BE0002F933F934F935F936F937F938F939F9325
:101BF000AF93BF93EF93FF9383EE93E00E943A037A
:101C0000FF91EF91BF91AF919F918F917F916F91D4
:101C10005F914F913F912F910F900FBE0F901F90AA
:101C200018951F920F920FB60F9211242F938F9336
:101C30009F93EF93FF93E091F303F091F40380817E
:101C4000E091F903F091FA0382FD1BC0908180912D
:101C5000FC038F5F8F732091FD03821741F0E091A9
:101C6000FC03F0E0ED51FC4F958F8093FC03FF9156
:101C7000EF919F918F912F910F900FBE0F901F901A
:101C800018958081F4CF1F920F920FB60F921124F6
:101C90002F933F934F935F936F937F938F939F9374
:101CA000AF93BF93EF93FF93E0910001F091010197
:101CB0000995FF91EF91BF91AF919F918F917F9186
:101CC0006F915F914F913F912F910F900FBE0F90A9
:101CD0001F9018959F92AF92BF92CF92DF92EF9292
:101CE000FF920F931F93CF93DF93E7EDF3E01382FF
:101CF000128288EE93E0A0E0B0E084839583A6830F
:101D0000B7832DE131E031832083E3EEF3E01382EA
:101D1000128284839583A683B7838FE291E09183B7
:101D2000808385EC90E09587848784EC90E09787AA
:101D3000868780EC90E0918B808B81EC90E0938B98
:101D4000828B82EC90E0958B848B86EC90E0978B75
:101D5000868B118E128E138E148E4091030150913A
:101D60000401609105017091060186EB94E00E94E8
:101D70007F0BCCE9D4E01A8219821C821B821E825E
:101D80001D8218861F8282E3A82EA9869FE1B92EA4
:101D9000BA8625E2C22ECB863CE0D32EDC864EE30B
:101DA000E42EED861E861F86188A198A1A8A0FEA83
:101DB00014E0F80110828EE18C8B1E8A1D8A54E09B
:101DC000F52EFF8A85E0888F86E0898F54985C988D
:101DD0002DEA31E0F901449189E991E0FC01549147
:101DE000E52FF0E0EE0FFF1FE657FE4FA591B491EF
:101DF0005C91409545234C93F9012491FC01849119
:101E0000E82FF0E0EE0FFF1FE058FE4FA591B491D0
:101E10008C91209528232C93898D90E09C01285546
:101E20003E4FF90144918C569E4FFC015491E52F91
:101E3000F0E0EE0FFF1FE657FE4FA591B4915C91C5
:101E4000409545234C93F9012491FC018491E82F9E
:101E5000F0E0EE0FFF1FE058FE4FA591B4918C917A
:101E6000282B2C938B819C8190619C838B838F8901
:101E70000E945808982E888D0E945808880F89293A
:101E8000982F9F70F8018081807F892B8083EDE8F7
:101E9000F4E0128211821482138216821582108657
:101EA0001782A186B286C386D486E58688E08687B7
:101EB0002098289A80E090E194838383E0E8F4E01E
:101EC0001382128281E491E091838083118687E2FC
:101ED000848384E18287F3861486DF91CF911F91FA
:101EE0000F91FF90EF90DF90CF90BF90AF909F90B9
:101EF0000895CF93DF93CDB7DEB7A4970FB6F894CC
:101F0000DEBF0FBECDBF789484B5826084BD84B53A
:101F1000816084BD85B5826085BD85B5816085BDE4
:101F200080916E00816080936E001092810080919C
:101F30008100826080938100809181008160809324
:101F40008100809180008160809380008091B10049
:101F500084608093B1008091B00081608093B00074
:101F600080917A00846080937A0080917A00826008
:101F700080937A0080917A00816080937A008091CA
:101F80007A00806880937A001092C100E091F30398
:101F9000F091F40382E08083E091EF03F091F0038D
:101FA0001082E091F103F091F20380E180831092BE
:101FB000FB03E091F703F091F80386E08083E09162
:101FC000F503F091F603808180618083E091F50351
:101FD000F091F603808188608083E091F503F091B1
:101FE000F603808180688083E091F503F091F60329
:101FF00080818F7D808389E491E00E946F0865E095
:1020000070E080E090E00E94880290E080E00E9412
:10201000151A8093030181E090E00E94151A8093C5
:10202000040182E090E00E94151A8093050183E08C
:1020300090E00E94151A8093060165E070E080E050
:1020400090E00E9488026CE971E0CE0101960E9446
:10205000280C66EB74E0CE0101960E94410B0E94B1
:10206000CE08CE0101960E94CF0A3DECC32E3CEC77
:10207000D32EED2C3DE3F32E60910301709104010A
:1020800080910501909106019B01AC010E94DE1B2D
:10209000882359F0C0920301D0920401E092050117
:1020A000F09206010E94390CE7CF10925B03109268
:1020B0005A0310925D0310925C030E94240280E593
:1020C00091E0909385038093840381E591E0909360
:1020D0008903809388031092850480918B04823059
:1020E00018F098E0909385048093880462E370E090
:1020F00080E090E00E94880260918C0480E894E087
:102100000E94CA0368EE73E080E090E00E948802BB
:1021100060E380E894E00E9473070BE416E4C801D2
:102120000197F1F760E380E894E00E947307C8012B
:102130000197F1F760E380E894E00E94730783E57C
:1021400092E00197F1F760E280E894E00E94730763
:1021500060918504606240E080E894E00E948C0712
:1021600084E08093860440E06CE080E894E00E9484
:102170008C070E94F10782E08093870440E066E0CC
:1021800080E894E00E948C0740E062E080E894E000
:102190000E948C078BE39FE10197F1F788E0809321
:1021A0008C0460E080E894E00E94CA0382E00E9410
:1021B0000A0183E00E940A0187E00E940A018DE083
:1021C0000E940A0180E480937C0080917A00806400
:1021D00080937A0080917A0086FDFCCF6091780030
:1021E00070917900072E000C880B990B6115710511
:1021F0008105910511F00E94871661E087E00E9439
:10220000D80161E083E00E94D8010E94F1076FEAE3
:1022100071E0CE0101960E94280CBE016F5F7F4FD6
:1022200080E00E94D707CE0101960E94CF0A68EE97
:1022300073E080E090E00E94880267EB71E0CE01DD
:1022400001960E94280C42E061E0CE0101960E94B6
:10225000B809CE0101960E94CF0A69EC71E0CE0167
:1022600001960E94280C43E068E0CE0101960E948E
:10227000B809CE0101960E94CF0A68EE73E080E0B3
:1022800090E00E9488020E94F1076EEC71E0CE019E
:1022900001960E94280CBE016F5F7F4F81E00E9473
:1022A000D707CE0101960E94CF0A64ED71E0CE01FE
:1022B00001960E94280CBE016F5F7F4F82E00E9452
:1022C000D707CE0101960E94CF0A60ED77E080E04B
:1022D00090E00E9488020E94F1070E94B4042091BD
:1022E000090330910A0340910B0350910C0380E1E4
:1022F0008093810010928000A0EAB0E00E944A1A08
:102300006B017C0124E130E040E050E00E94941A2F
:102310002115310581E04807510508F049C181E0E8
:1023200080931303309308032093070380910703DE
:102330009091080390938700809386008091130307
:102340008061809381008AE098E0909301018093FE
:10235000000111E010936F0080E18093810089E417
:1023600091E00E946F0889EE91E00E94C0080E94EF
:10237000E30810930D0320E1B22E00E010E08091FD
:102380000D03882309F440C010920D03409103010E
:10239000509104016091050170910601CE010196F2
:1023A0000E947F0B8091B6049091B704009709F4C6
:1023B00049C169817A816115710509F441C1409172
:1023C000B8045091B9042D813E814217530708F497
:1023D00037C10E94CE1D8D819E819093BB04809356
:1023E000BA041E821D82CE0101960E94CF0A8091FE
:1023F0000201813009F491C108F43BC1823009F433
:10240000CEC1833009F491C28091B5049091AE049D
:1024100097FF22C30E945808682F8FEF0E94400642
:1024200080919B040E94580820919004309191045F
:1024300020FD10928D04A9014F715527452B29F0DD
:10244000207E3093910420939004682F8DE894E0CF
:102450000E945305882309F40FC380919204909140
:102460009304892B09F00FC38091AE0485FF3DC012
:1024700090910201911139C084FD41C36DEC7CEC57
:102480008CEC9DEB209103013091040140910501FA
:10249000509106010E94CC1A6B017C012DEC3CECA2
:1024A0004CEC5DE30E94F11887FD2EC320E030E084
:1024B00040EC50E4C701B6010E94D91B181634F451
:1024C000C12CD12C90ECE92E90E4F92EC09203019E
:1024D000D0920401E0920501F09206010E94B4043A
:1024E0000E94E30881E080930D0380919F04909106
:1024F000A004807591704097B1F4809102019EEF25
:10250000980F923080F0811107C381E0809302011F
:102510000E94390C8EEB92E00E94C0080E94F107E5
:1025200081E080930D03809102018823A9F120911D
:10253000900430919104A9014075517040315105CA
:1025400009F001C3833041F1813009F0EDC260E050
:1025500087E00E94D80110928100109285001092AD
:1025600084008091130380618093810082E08093D6
:10257000020181EE92E00E94C008109212031092B4
:1025800011031092100310920F0310920E030E9479
:10259000F10781E080930D030115110509F4EFCED9
:1025A0000E942603882309F4EACE0E940000E7CEA9
:1025B0002115310588E04807510560F482E08093D9
:1025C0001303C701B60120EA30E040E050E00E946A
:1025D000941AA8CE2115310580E44807510550F41E
:1025E00083E080931303C701B60120E035E040E0AB
:1025F00050E0EDCF21153105410581E0580750F439
:1026000084E080931303C701B60120E034E140E089
:1026100050E0DDCF85E0809313032115310541059E
:10262000544038F4C701B60120E030E540E050E006
:10263000CECF8FEF9FEF909308038093070376CE62
:102640000E947F1C89819A819093B7048093B6047D
:102650008B819C819093B9048093B8048D819E8175
:102660009093BB048093BA041A8219821C821B8245
:10267000B8CE61EF71E0CE0101960E94280CBE0138
:102680006F5F7F4F80E00E94D707CE0101960E94C6
:10269000CF0A6CEF71E0CE0107960E94280C66EB22
:1026A00074E0CE0107960E94410B67E072E00E9441
:1026B0002B0BBC01CE0101960E940E0CBE016F5F78
:1026C0007F4F81E00E94D707CE0101960E94CF0A7A
:1026D000CE0107960E94CF0A69E072E0CE01019612
:1026E0000E94280CBE016F5F7F4F82E00E94D707D7
:1026F000CE0101960E94CF0A6EE172E0CE010196F2
:102700000E94280CBE016F5F7F4F83E00E94D707B5
:10271000CE0101960E94CF0A77CE60E372E0CE012F
:1027200007960E94280C66EB74E0CE0107960E9483
:10273000410BBC01CE0101960E940E0CBE016F5FE1
:102740007F4F80E00E94D707CE0101960E94CF0AFA
:10275000CE0107960E94CF0A6AE372E0CE0101968D
:102760000E94280CBE016F5F7F4F81E00E94D70757
:10277000CE0101960E94CF0A69E472E0CE01019673
:102780000E94280CBE016F5F7F4F82E00E94D70736
:10279000CE0101960E94CF0A6CE572E0AFCF809126
:1027A0000E038C3360F010920E0380910F038F5F45
:1027B0008C3308F09BC080930F030E94F107609157
:1027C0000E03CE0107960E94E10B60910F03CE012C
:1027D0000D960E94E10B60911003CE0143960E947A
:1027E000E10B6091110370911203CE0149960E9492
:1027F000B50B6FE672E0CE014F960E94280CBE0129
:10280000675E7F4FCE014F960E94410B66E772E0F4
:102810000E942B0BBE016D5E7F4F0E94410B68E34F
:1028200072E00E942B0BBE01635F7F4F0E94410B41
:1028300068E372E00E942B0BBE01695F7F4F0E942C
:10284000410BBC01CE0101960E940E0CBE016F5FD0
:102850007F4F80E00E94D707CE0101960E94CF0AE9
:10286000CE014F960E94CF0ACE0149960E94CF0A10
:10287000CE0143960E94CF0ACE010D960E94CF0A48
:10288000CE0107960E94CF0A69E772E0CE01079653
:102890000E94280C66EB74E0CE0107960E94410B63
:1028A000BC01CE0101960E940E0CBE016F5F7F4FEE
:1028B00081E00E94D707CE0101960E94CF0ACE0187
:1028C00007960E94CF0A60E872E0CE0101960E944E
:1028D000280CBE016F5F7F4F82E00E94D707CE01B8
:1028E00001960E94CF0A62E972E008CF10920F03AE
:1028F000809110038F5F883118F4809310035DCFAF
:10290000109210038091110390911203019680316F
:1029100027E2920728F490931203809311034DCF7E
:10292000109212031092110348CF6CE872E0CE01AE
:1029300001960E94280CBE016F5F7F4F80E00E94CD
:10294000D707CE0101960E94CF0A69E772E0CE0157
:1029500007960E94280C66EB74E0CE0107960E9451
:10296000410BBC01CE0101960E940E0CBE016F5FAF
:102970007F4F81E00E94D707CE0101960E94CF0AC7
:10298000CE0107960E94CF0A60910E03CE010796F2
:102990000E94E10B60910F03CE010D960E94E10BA6
:1029A00060911003CE0143960E94E10B60911103E8
:1029B00070911203CE0149960E94B50B64EA72E051
:1029C000CE014F960E94280CBE01675E7F4FCE015C
:1029D0004F960E94410B66E772E00E942B0BBE01EE
:1029E0006D5E7F4F0E94410B68E372E00E942B0BEB
:1029F000BE01635F7F4F0E94410B68E372E00E945B
:102A00002B0BBE01695F7F4F0E94410BBC01CE01C1
:102A100001960E940E0CBE016F5F7F4F82E00E9404
:102A2000D707CE0101960E94CF0ACE014F960E9491
:102A3000CF0ACE0149960E94CF0ACE0143960E944A
:102A4000CF0ACE010D960E94CF0ACE0107960E94B2
:102A5000CF0A6BEA72E052CE0E945808E82E8091AD
:102A6000B3040E945808F82E8091B4040E945808BC
:102A7000880F6E2D8F29D2CC8DE894E00E940A0633
:102A80008111EBCCF1CC80919004909191049170E4
:102A900084369105C1F0E0F482329105A1F068F42A
:102AA0008130910581F0409771F08DE894E00E94AB
:102AB0000A06882309F4D8CC06C08134910519F0A0
:102AC0008035910591F78DE894E00E942906CCCCE1
:102AD000883E9105C1F338F4813C9105A1F3803D16
:102AE000910589F3E2CF803521E0920761F3803DC3
:102AF00021E0920741F380319140B9F6E4CF6DECCB
:102B00007CEC8CEC9DE3BECC8DECC82E8CECD82EEE
:102B1000ED2C8DE3F82EDACC813009F0FFCC109249
:102B2000020180ED92E0F8CC823009F026CDB0921F
:102B3000810061E087E00E94D80181E0809302017A
:102B40008EEB92E018CD22FF27CD823008F424CD01
:102B5000823071F4B092810060E087E00E94D80179
:102B600083E08093020181EF92E00E94C0080FCDC4
:102B7000833009F00CCD60E087E00E94D80180919D
:102B8000130380618093810082E08093020181EED3
:102B900092E0EBCF86EB94E00C94CF0AEF920F9388
:102BA0001F93CF93DF93E80134E047FD34E1042E17
:102BB000000C550B57FF03C0519541955109E32E69
:102BC000022F242FAE010E94AA16CE01DF91CF91D1
:102BD0001F910F91EF9008958F929F92AF92BF92A5
:102BE000CF92DF92EF92FF92CF93DF93EC01688157
:102BF00079818A819B81611571058105910521F497
:102C000064E279ED8BE597E02DE133EF41E050E0B0
:102C10000E942B1A49015A019B01AC01A7EAB1E4B9
:102C20000E944A1A6B017C01ACEEB4EFA50194013D
:102C30000E94581AC60ED71EE81EF91EF7FE06C0DF
:102C400081E0C81AD108E10880E8F80AC882D98270
:102C5000EA82FB82C701B6019F77DF91CF91FF9097
:102C6000EF90DF90CF90BF90AF909F908F9008959E
:102C70008F929F92AF92BF92CF92DF92EF92FF928C
:102C800060910701709108018091090190910A01FA
:102C9000611571058105910521F464E279ED8BE5FB
:102CA00097E02DE133EF41E050E00E942B1A4901FB
:102CB0005A019B01AC01A7EAB1E40E944A1A6B01D8
:102CC0007C01ACEEB4EFA50194010E94581AC60E27
:102CD000D71EE81EF91EF7FE06C081E0C81AD1080B
:102CE000E10880E8F80AC0920701D0920801E0925A
:102CF0000901F0920A01C701B6019F77FF90EF909A
:102D0000DF90CF90BF90AF909F908F900895609389
:102D10000701709308018093090190930A010895B7
:102D2000BB27FB015527AA27880F991FAA1FA417A5
:102D300010F0A41B83955051B9F7A05DAA3308F099
:102D4000A95DA193009779F7B111B1931192CB01CD
:102D50000C94E118A9E0B0E0E0EBF6E10C94631A02
:102D60006A01F22EB02E102FFBE3AF2EA01608F44E
:102D70001BE31F5F012F27E0AE014F5F5F4F0E94F3
:102D80000918BC018981982F9970913009F43FC0CE
:102D90009BE2E1FC04C09E2D9170E0FC3AC05E2DE8
:102DA0005071E82FE87083FF46C084E0911101C0A4
:102DB00083E0EF2DE81B8F1508F0E0E0D6018E2FA1
:102DC00020E2552351F1992329F0D6019C93C601A5
:102DD00001966C0196012D5F3F4FE2FE24C08EE408
:102DE000D6018C9391E411969C93119712968C9333
:102DF000D9018E2F90E281111BC0E20FF32FF11D3C
:102E000010828EEF9FEF2996ECE00C947F1A9DE2E2
:102E1000C6CF90E2C4CF2D9381508111FCCFCE0E4E
:102E2000D11CE0E0D0CF8EE6D6018C9391E6DBCFCB
:102E30009D938150E0CF482F447082FF3DC084E0D5
:102E4000911101C083E08F1510F4EF2DE81BD6011E
:102E50008E2F20E2552309F1992329F0D6019C9366
:102E6000C60101966C0196012D5F3F4FE2FE1BC02B
:102E700089E4D6018C938EE411968C93119786E4A5
:102E800012968C93D9018E2F90E2882309F4B5CF46
:102E90009D938150FACF2D9381508111FCCFCE0E9E
:102EA000D11CE0E0D9CF89E6D6018C938EE611964D
:102EB0008C93119786E6E4CF9B0177FF02C030E048
:102EC00020E0A1E0B0E0911102C0B0E0A0E0F90183
:102ED0003196AE0FBF1F8B2C912CBB2009F461C023
:102EE0005401EFEFAE1ABE0AAA0DBB1DFA161B065F
:102EF00019F014F04F2D4A1B511188C0E3FC59C042
:102F00007601A42FB0E2A1114FC0C40ED11C9923A9
:102F100009F45BC040E0D6011196F60190836D0183
:102F2000552309F448C0012F060F9A81582F50717C
:102F300084FF03C0913309F4015010160CF047C010
:102F4000093008F008E0EEE2FE2E5B01A01AB1089D
:102F500085019194819491082F3F320729F4D6017D
:102F6000FC92F60131966F016217730794F1021714
:102F700013077CF5DB01A21BB30BAA24A394B12C8D
:102F8000AC0EBD1EAA0DBB1D11968C9121503109AE
:102F9000D601119628153905F4F0F60180836D01EC
:102FA000DBCFB12CA12CA0CFF701B1937F01A150B1
:102FB000AACF9111B0CFD601942F50E302C05D93F8
:102FC00091509111FCCFC40ED11C40E0ACCF01E078
:102FD000BACF80E3DBCF6217730731F4963388F4FE
:102FE000953311F4552369F0F6018083FD01842F98
:102FF00090E2811108C0A40FB11D1C9290E080E006
:1030000002CF81E3F1CF91938150F3CF911183CF20
:103010008ACF283008F027E03327DA01990F311DD5
:1030200087FD916000966105710539F432602E5F6D
:103030003D9330E32A95E1F708959F3F30F08038C3
:103040007105610509F03C5F3C5F3D93913008F0EC
:103050008068911DDF93CF931F930F93FF92EF92A0
:10306000192F987F9695E92F96959695E90FFF274A
:10307000EE53FF4F99273327EE24FF24A701E701E2
:1030800005900894079428F4360FE71EF81E491F90
:10309000511D660F771F881F991F0694A1F7059091
:1030A000079428F4E70EF81E491F561FC11D770F1D
:1030B000881F991F661F0694A1F70590079428F4AE
:1030C000F80E491F561FC71FD11D880F991F661F75
:1030D000771F0694A1F70590079420F4490F561F17
:1030E000C71FD81F990F661F771F881F0694A9F75F
:1030F00084911095177041F0D695C79557954795CF
:10310000F794E7941A95C1F7E8E6F0E06894159013
:10311000159135916591959105907FE27395E11830
:10312000F10A430B560BC90BD009C0F7E10CF11E95
:10313000431F561FC91FD01D7EF4703311F48A95AA
:10314000E6CFE894015030F0080F0AF40027021788
:1031500008F4202F2395022F7A3328F079E37D930A
:103160002A95E9F710C07D932A9589F606949795DC
:103170006795379517951794E118F10A430B560B8D
:10318000C90BD00998F023957E9173957A3308F096
:1031900070E37C932013B8F77E9170617D9330F0DB
:1031A000839571E37D9370E32A95E1F71124EF9005
:1031B000FF900F911F91CF91DF91992787FD9095F7
:1031C0000895DC01FC01672F71917723E1F73297B5
:1031D00004C07C916D9370836291AE17BF07C8F3F2
:1031E00008950E94331908F481E00895E89409C015
:1031F00097FB3EF490958095709561957F4F8F4F2A
:103200009F4F9923A9F0F92F96E9BB279395F6953F
:10321000879577956795B795F111F8CFFAF4BB0FBD
:1032200011F460FF1BC06F5F7F4F8F4F9F4F16C021
:10323000882311F096E911C0772321F09EE8872FAB
:10324000762F05C0662371F096E8862F70E060E067
:103250002AF09A95660F771F881FDAF7880F9695E0
:10326000879597F90895990F0008550FAA0BE0E884
:10327000FEEF16161706E807F907C0F01216130638
:10328000E407F50798F0621B730B840B950B39F478
:103290000A2661F0232B242B252B21F408950A26DE
:1032A00009F4A140A6958FEF811D811D08950E940C
:1032B0006A190C94DB190E94CD1938F00E94D419B8
:1032C00020F0952311F00C94C4190C94CA19112400
:1032D0000C940F1A0E94EC1970F3959FC1F3950F8F
:1032E00050E0551F629FF001729FBB27F00DB11D8A
:1032F000639FAA27F00DB11DAA1F649F6627B00D1A
:10330000A11D661F829F2227B00DA11D621F739F02
:10331000B00DA11D621F839FA00D611D221F749F10
:103320003327A00D611D231F849F600D211D822F57
:10333000762F6A2F11249F5750409AF0F1F088237E
:103340004AF0EE0FFF1FBB1F661F771F881F9150AB
:103350005040A9F79E3F510580F00C94C4190C947D
:103360000F1A5F3FE4F3983ED4F3869577956795FF
:10337000B795F795E7959F5FC1F7FE2B880F911DD5
:103380009695879597F9089597F99F6780E870E07B
:1033900060E008959FEF80EC089500240A941616CB
:1033A000170618060906089500240A941216130633
:1033B000140605060895092E0394000C11F48823C1
:1033C00052F0BB0F40F4BF2B11F460FF04C06F5FDD
:1033D0007F4F8F4F9F4F089557FD9058440F551FB3
:1033E00059F05F3F71F04795880F97FB991F61F087
:1033F0009F3F79F087950895121613061406551FFE
:10340000F2CF4695F1DF08C0161617061806991F69
:10341000F1CF86957105610508940895E894BB275E
:1034200066277727CB0197F90895F999FECF92BDCA
:1034300081BDF89A992780B50895262FF999FECF76
:103440001FBA92BD81BD20BD0FB6F894FA9AF99AC1
:103450000FBE01960895052E97FB1EF400940E945E
:10346000421A57FD07D00E94941A07FC03D04EF46D
:103470000C94421A50954095309521953F4F4F4FEF
:103480005F4F089590958095709561957F4F8F4F10
:103490009F4F08950E94B61AA59F900DB49F900D5E
:1034A000A49F800D911D11240895B7FF0C944A1A12
:1034B0000E944A1A821B930B08952F923F924F92BB
:1034C0005F926F927F928F929F92AF92BF92CF92B4
:1034D000DF92EF92FF920F931F93CF93DF93CDB7BD
:1034E000DEB7CA1BDB0B0FB6F894DEBF0FBECDBF35
:1034F00009942A88398848885F846E847D848C8406
:103500009B84AA84B984C884DF80EE80FD800C810E
:103510001B81AA81B981CE0FD11D0FB6F894DEBFF1
:103520000FBECDBFED010895A1E21A2EAA1BBB1B51
:10353000FD010DC0AA1FBB1FEE1FFF1FA217B3077F
:10354000E407F50720F0A21BB30BE40BF50B661F95
:10355000771F881F991F1A9469F760957095809559
:1035600090959B01AC01BD01CF010895A29FB001D0
:10357000B39FC001A39F700D811D1124911DB29FA7
:10358000700D811D1124911D0895EE0FFF1F0590F0
:10359000F491E02D09945058BB27AA270E94E31A02
:1035A0000C94DB190E94CD1938F00E94D41920F038
:1035B00039F49F3F19F426F40C94CA190EF4E095DF
:1035C000E7FB0C94C419E92F0E94EC1958F3BA17C1
:1035D000620773078407950720F079F4A6F50C9429
:1035E0000E1A0EF4E0950B2EBA2FA02D0B01B90187
:1035F00090010C01CA01A0011124FF27591B99F069
:10360000593F50F4503E68F11A16F040A22F232F74
:10361000342F4427585FF3CF469537952795A795C4
:10362000F0405395C9F77EF41F16BA0B620B730B6B
:10363000840BBAF09150A1F0FF0FBB1F661F771FDC
:10364000881FC2F70EC0BA0F621F731F841F48F491
:10365000879577956795B795F7959E3F08F0B0CF1A
:103660009395880F08F09927EE0F97958795089501
:103670000E944C1B0C94DB190E94D41958F00E9434
:10368000CD1940F029F45F3F29F00C94C419511171
:103690000C940F1A0C94CA190E94EC1968F3992320
:1036A000B1F3552391F3951B550BBB27AA2762173E
:1036B0007307840738F09F5F5F4F220F331F441F4B
:1036C000AA1FA9F335D00E2E3AF0E0E832D091507F
:1036D0005040E695001CCAF72BD0FE2F29D0660F6C
:1036E000771F881FBB1F261737074807AB07B0E8AF
:1036F00009F0BB0B802DBF01FF2793585F4F3AF0B5
:103700009E3F510578F00C94C4190C940F1A5F3F3A
:10371000E4F3983ED4F3869577956795B795F7953A
:103720009F5FC9F7880F911D9695879597F9089522
:10373000E1E0660F771F881FBB1F621773078407BE
:10374000BA0720F0621B730B840BBA0BEE1F88F7CD
:10375000E09508950E94F41988F09F5798F0B92FCA
:103760009927B751B0F0E1F0660F771F881F991FB6
:103770001AF0BA95C9F714C0B13091F00E940E1A30
:10378000B1E008950C940E1A672F782F8827B85F40
:1037900039F0B93FCCF3869577956795B395D9F70E
:1037A0003EF490958095709561957F4F8F4F9F4F18
:1037B00008950E94331908F48FEF08950E94331979
:1037C000880B990B08950F931F93CF93DF9382304B
:1037D000910510F482E090E0E091BE04F091BF0406
:1037E00030E020E0B0E0A0E0309799F421153105F9
:1037F00009F44AC0281B390B24303105D8F58A81D9
:103800009B816115710589F1FB0193838283FE0120
:1038100011C0408151810281138148175907E0F09E
:103820004817590799F4109761F012960C93129764
:1038300013961C933296CF01DF91CF911F910F9178
:1038400008950093BE041093BF04F4CF21153105F1
:1038500051F04217530738F0A901DB019A01BD016D
:10386000DF01F801C1CFEF01F9CF9093BF0480933E
:10387000BE04CDCFFE01E20FF31F8193919322503E
:10388000310939832883D7CF2091BC043091BD04FE
:10389000232B41F420910D0130910E013093BD0492
:1038A0002093BC0420910B0130910C0121153105AE
:1038B00041F42DB73EB740910F0150911001241BE8
:1038C000350BE091BC04F091BD04E217F307A0F4BE
:1038D0002E1B3F0B2817390778F0AC014E5F5F4F66
:1038E0002417350748F04E0F5F1F5093BD044093D7
:1038F000BC04819391939FCFF0E0E0E09CCFCF9305
:10390000DF930097E9F0FC01329713821282A091B5
:10391000BE04B091BF04ED0130E020E01097A1F4A7
:1039200020813181820F931F2091BC043091BD040E
:103930002817390709F061C0F093BD04E093BC0477
:10394000DF91CF910895EA01CE17DF07E8F54A81AC
:103950005B819E0141155105B1F7E901FB83EA83C3
:1039600049915991C40FD51FEC17FD0761F480816F
:1039700091810296840F951FE90199838883828142
:1039800093819B838A83F0E0E0E012968D919C9175
:1039900013970097B9F52D913C911197CD0102969F
:1039A000820F931F2091BC043091BD042817390762
:1039B00039F6309751F51092BF041092BE04B093BF
:1039C000BD04A093BC04BCCFD383C283408151818A
:1039D000840F951FC817D90761F44E5F5F4F888128
:1039E0009981480F591F518340838A819B8193831A
:1039F00082832115310509F0B0CFF093BF04E09325
:103A0000BE049ECFFD01DC01C0CF13821282D7CF4E
:103A1000B0E0A0E0EEE0FDE10C945F1A8C010097AD
:103A200051F4CB010E94E31B8C01C801CDB7DEB776
:103A3000E0E10C947B1AFC01E60FF71F9C01225079
:103A40003109E217F30708F49DC0D901CD91DC914B
:103A50001197C617D70798F0C530D10530F3CE01BE
:103A600004978617970708F3C61BD70B2297C193B5
:103A7000D1936D937C93CF010E947F1CD6CF5B01C5
:103A8000AC1ABD0A4C018C0E9D1EA091BE04B091D3
:103A9000BF04512C412CF12CE12C109731F5809171
:103AA000BC049091BD048815990509F05CC04616C8
:103AB000570608F058C080910B0190910C010097B7
:103AC00041F48DB79EB740910F0150911001841BB6
:103AD000950BE817F90708F055C0F093BD04E09383
:103AE000BC04F90171836083A0CF8D919C911197E3
:103AF00012966C90129713967C901397A815B9059F
:103B000059F56C0142E0C40ED11CCA14DB0420F14B
:103B1000AC014A195B09DA011296159780F06282AE
:103B2000738251834083D9016D937C93E114F10436
:103B300071F0D7011396FC93EE93129776CF2296ED
:103B40008C0F9D1FF90191838083F301EFCFF093D8
:103B5000BF04E093BE0469CF4816590608F42C014F
:103B60007D01D3019ACFCB010E94E31B7C0100971A
:103B700049F0AE01B8010E94C51DC8010E947F1C1A
:103B8000870153CF10E000E050CFFB01DC0102C001
:103B900001900D9241505040D8F70895FB01DC018F
:103BA00001900D920020E1F7089510E0CFEDD0E0F4
:103BB00004C0FE010E94C51A2196C03ED107C9F774
:043BC000F894FFCFA7
:103BC400C90301CDCCCC3D010000000000C004803D
:103BD40000000040001400540000000000A9017C13
:103BE40001B1045201750162015301000000005C3F
:103BF40003BC02E902A9031A03F8020C0300000043
:103C0400000408BC02B104BB020D0A0044656275DD
:103C14006720646174613A00537465702064656C54
:103C240061793A20002075730053706565642073D0
:103C3400657420746F3A20006E616E00696E6600D0
:103C44006F7666002072706D00536176652045457D
:103C540050524F4D20646174613A20004C6F61648E
:103C640020454550524F4D20646174613A200057FD
:103C7400454C434F4D450053544550504552204305
:103C84004F4E54524F4C45520076312E30006D61E8
:103C9400696C3A00706C616E65722E72656740677C
:103CA4006D61696C2E636F6D0057656C636F6D6534
:103CB4000053455455502052504D3A004E657720DC
:103CC40052504D3A203E003C00526F74617465209E
:103CD400454E4320746F2041444A5553540050725A
:103CE40065737320454E4320746F204C4F4144004C
:103CF4004C4F41442052504D3A0052656164792042
:103D0400746F2053544152540050726573732045AC
:103D14004E4320746F2053455455500050726573C0
:103D2400732042544E20746F205354415254005710
:103D34004F524B3A200064200052504D203D200049
:103D4400486F6C642042544E20746F205041555388
:103D5400450050726573732042544E20746F205393
:103D6400544F500054696D653A2000486F6C6420CC
:103D740042544E20746F20524553554D4500456EB4
:103D8400746572206C6F61646564206D6F64650096
:103D9400456E746572207365747570206D6F64650B
:103DA40000456E74657220776F726B206D6F646569
:103DB40000456E746572207061757365206D6F6463
:023DC400650098
:00000001FF
