:100000000C94DF000C9407010C9407010C94070179
:100010000C9407010C9407010C9407010C94070140
:100020000C9407010C9407010C9407010C94070130
:100030000C9407010C94560E0C9407010C940701C4
:100040000C94B40D0C9407010C94240E0C94FE0D2A
:100050000C9407010C9407010C9407010C94070100
:100060000C94950C0C94070100407A10F35A00A0F0
:10007000724E18090010A5D4E80000E87648170071
:1000800000E40B54020000CA9A3B000000E1F505B1
:10009000000080969800000040420F000000A086FB
:1000A00001000000102700000000E803000000002D
:1000B0006400000000000A000000000001000000D1
:1000C00000002C76D888DC674F0823DFC1DFAE59EB
:1000D000E1B1B796E5E3E453C63AE651997696E87E
:1000E000E6C28426EB898C9B62ED407C6FFCEFBC02
:1000F0009C9F40F2BAA56FA5F490055A2AF75C932D
:100100006B6CF9676DC11BFCE0E40D47FEF520E662
:10011000B500D0ED902E0300943577050080841E45
:10012000080000204E0A000000C80C333333330FA0
:10013000986E12831141EF8D2114893BE65516CF3D
:10014000FEE6DB18D1844B381BF77C1D901DA4BB49
:10015000E424203284725E228100C9F124ECA1E5FE
:100160003D270000000023002600290000000008B1
:10017000000201000003040700000000000000006E
:1001800000000000250028002B00000000002400D3
:1001900027002A00040404040404040402020202E6
:1001A000020203030303030301020408102040803A
:1001B0000102040810200102040810207D0E112401
:1001C0001FBECFEFD8E0DEBFCDBF13E0A0E0B1E0AF
:1001D000EEEFFBE302C005900D92A636B107D9F70A
:1001E00025E0A6E6B3E001C01D92AE31B207E1F70B
:1001F00010E0CFEDD0E004C02197FE010E94ED1A7F
:10020000CE3DD107C9F70E94800F0C94FD1D0C94C0
:10021000000090E0FC01E855FE4F24918C569E4F63
:10022000FC018491882399F090E0880F991FFC01CC
:10023000E657FE4FA591B491FC01E058FE4F859121
:1002400094918FB7F894EC91E22BEC938FBF0895C3
:100250002091EA03260F3327331F21323105ECF4B6
:1002600020911004FC0190E080E0243069F082E0ED
:100270000895A091EA032191AC0148535C4FA40F6B
:10028000B52FB11D2C930196861798F38091EA0340
:10029000680F6093EA0380E0089581E0089508956F
:1002A00008950895E091BF038091BE03E81730F4EC
:1002B000F0E0E256FC4F808190E008958FEF9FEFD1
:1002C00008959091BF038091BE032FEF3FEF9817E1
:1002D00048F4E92FF0E0E256FC4F208130E09F5FC8
:1002E0009093BF03C90108958091BE039091BF030D
:1002F000891B990B0895CF92DF92EF92FF920F9393
:100300001F93CF93DF937C01CB018A0120919D0342
:10031000222389F0EB016B01C40ED51ECC15DD053F
:1003200069F06991D701ED91FC910190F081E02D88
:10033000C7010995F3CF642F0E942801C801DF91FE
:10034000CF911F910F91FF90EF90DF90CF90089584
:10035000CF93DF931F92CDB7DEB7698320919D03C2
:100360002223F9F02091C003203258F021E030E040
:10037000FC013383228390E080E00F90DF91CF91E6
:1003800008958091C103E82FF0E0E358FC4F998174
:1003900090838F5F8093C1038093C00381E090E0DE
:1003A000ECCF61E0CE0101960E942801F7CF90E0EA
:1003B000FC01E459FE4F2491FC01E855FE4F3491B5
:1003C000FC01EC56FE4FE491EE23C9F0222339F0F4
:1003D000233001F1A8F4213019F1223029F1F0E0A5
:1003E000EE0FFF1FE058FE4FA591B4918FB7F89420
:1003F000EC91611126C030953E233C938FBF089548
:100400002730A9F02830C9F0243049F780918000C6
:100410008F7D03C0809180008F7780938000DFCF35
:1004200084B58F7784BDDBCF84B58F7DFBCF809182
:10043000B0008F778093B000D2CF8091B0008F7DD5
:10044000F9CF3E2BDACF1092100481E08093120492
:100450001092110461E082E10E94D70161E083E122
:100460000E94D701E9EBF0E080818E7F808380815C
:100470008D7F808388E48093B80085E48093BC00FE
:100480000895CF93DF9391E09093C7038823B9F049
:10049000C091B800D091BA008091BC008A7B809353
:1004A000BC0060E082E10E94D70160E083E10E942D
:1004B000D7010E942302D093BA00C093B800DF9105
:1004C000CF9108953FB7F8948091790390917A0382
:1004D000A0917B03B0917C0326B5A89B05C02F3F5C
:1004E00019F00196A11DB11D3FBFBA2FA92F982F5A
:1004F0008827BC01CD01620F711D811D911D42E055
:10050000660F771F881F991F4A95D1F708958F921C
:100510009F92AF92BF92CF92DF92EF92FF926B01C8
:100520007C010E9462024B015C01C114D104E10410
:10053000F104B9F00E946202681979098A099B09DD
:10054000683E73408105910580F321E0C21AD1080D
:10055000E108F10888EE880E83E0981EA11CB11C0A
:10056000E4CFFF90EF90DF90CF90BF90AF909F903F
:100570008F900895AF92BF92CF92DF92EF92FF9249
:100580000F931F93CF93DF936C017B018B01040FBB
:10059000151FEB015E01AE18BF08C017D10759F057
:1005A0006991D601ED91FC910190F081E02DC60199
:1005B0000995892B79F7C501DF91CF911F910F9193
:1005C000FF90EF90DF90CF90BF90AF900895FC0127
:1005D000538D448D252F30E0842F90E0821B930BA8
:1005E000541710F0CF96089501970895FC01918D4E
:1005F000828D981761F0A28DAE0FBF2FB11D5D9651
:100600008C91928D9F5F9F73928F90E008958FEFF2
:100610009FEF0895FC01918D828D981731F0828DA6
:10062000E80FF11D858D90E008958FEF9FEF0895FD
:10063000FC01918D228D892F90E0805C9F4F821B61
:1006400091098F739927089587E494E00E94180315
:1006500021E0892B09F420E0822F089580E090E0CA
:10066000892B29F00E94240381110C940000089525
:10067000FC01A48DA80FB92FB11DA35ABF4F2C9117
:10068000848D90E001968F739927848FA689B7890E
:100690002C93A089B1898C91837080648C93938D05
:1006A000848D981306C00288F389E02D80818F7DA8
:1006B00080830895EF92FF920F931F93CF93DF9360
:1006C000EC0181E0888F9B8D8C8D98131AC0E8898E
:1006D000F989808185FF15C09FB7F894EE89FF895D
:1006E0006083E889F98980818370806480839FBFFB
:1006F00081E090E0DF91CF911F910F91FF90EF90FB
:100700000895F62E0B8D10E00F5F1F4F0F7311270A
:10071000E02E8C8D8E110CC00FB607FCFACFE88945
:10072000F989808185FFF5CFCE010E943803F1CF92
:10073000EB8DEC0FFD2FF11DE35AFF4FF0829FB7B9
:10074000F8940B8FEA89FB8980818062CFCFCF93A9
:10075000DF93EC01888D8823B9F0AA89BB89E889E9
:10076000F9898C9185FD03C0808186FD0DC00FB68F
:1007700007FCF7CF8C9185FFF2CF808185FFEDCF0D
:10078000CE010E943803E9CFDF91CF9108950895FB
:10079000CF92DF92EF92FF920F931F93CF93DF934D
:1007A000FC01C48121E020939D03C0936A03109251
:1007B000C1031092C0038485682B8BE394E00E94F0
:1007C000A801D091C003D13208F092C00E94620209
:1007D0006B017C0180911004811165C082E08093DF
:1007E000100481E0809312048FEF80930F04109225
:1007F0003404D0933304ADE7B3E0E3E1F4E080E008
:10080000D81385C01092350480913504CC0FC82BC5
:10081000C093350480911104813009F07CC010929E
:1008200011040E9462026B017C0180913504809367
:10083000BB008091C3039091C403A091C503B09104
:10084000C603892B8A2B8B2B99F00E9462020091A0
:10085000C3031091C4032091C5033091C6036C19E2
:100860007D098E099F090617170728073907E0F148
:100870008091BC0083FDD9CF85EC8093BC000E94A1
:1008800062026B017C0180911004823009F445C042
:1008900080910F048F3F61F180910F04803241F10C
:1008A00080910F0425C08091C3039091C403A0914F
:1008B000C503B091C603892B8A2B8B2B09F48ACFF1
:1008C0000E9462020091C3031091C4032091C503EA
:1008D0003091C6036C197D098E099F090617170709
:1008E0002807390708F076CF8091C2030E944102A1
:1008F0001092C1031092C00310929D03DF91CF911B
:100900001F910F91FF90EF90DF90CF9008959D91F0
:1009100091938F5F75CF85EEB0CF8091C303909197
:10092000C403A091C503B091C603892B8A2B8B2BDE
:1009300009F4A9CF0E9462020091C3031091C4037D
:100940002091C5033091C6036C197D098E099F095A
:10095000061717072807390708F095CFC5CF089560
:1009600090E080E00895CF92DF92EF92FF9220E036
:1009700030E048E453E460910201709103018091FA
:100980000401909105010E947F1920E030E040E8C9
:1009900051E40E947F199B01AC0160EC71EE84E68A
:1009A0009CE40E94601B0E94D21B9B01AC0120931F
:1009B0006D0330936E0340936F0350937003A0EA6E
:1009C000B0E00E94721A6B017C0124E130E040E04B
:1009D00050E00E94BC1A2115310581E048075105FD
:1009E000C8F481E08093770330936C0320936B030A
:1009F00080916B0390916C039093870080938600A5
:100A000080917703806180938100FF90EF90DF9069
:100A1000CF9008952115310588E04807510560F40D
:100A200082E080937703C701B60120EA30E040E01E
:100A300050E00E94BC1AD8CF2115310580E4480748
:100A4000510550F483E080937703C701B60120E09D
:100A500035E040E050E0EDCF21153105410581E062
:100A6000580750F484E080937703C701B60120E073
:100A700034E140E050E0DDCF85E08093770321153D
:100A800031054105544038F4C701B60120E030E596
:100A900040E050E0CECF8FEF9FEF90936C038093B8
:100AA0006B03A6CFCF93FC012381348134FB8827CD
:100AB00080F9862736FF04C03F7B3483238381E09F
:100AC0002381348131FD05C08823B9F1326034833C
:100AD00023839FB7F8944091370450913804609174
:100AE000390470913A049FBF21813281DA01A21B3F
:100AF000B30B238134818823F1F125FD20C081854A
:100B000032FD06C0882321F03460348323830BC078
:100B10008A171B0619F010F0811107C02262348376
:100B200023835087478352834183238134812F71EC
:100B3000332781E0232B09F480E0CF91089537FD1E
:100B4000F4CF26FD0AC08385C0E18C9FC00111242B
:100B5000A817B90750F32464D8CF27FF0AC08485AB
:100B6000C0E18C9FC00111242868A817B90768F656
:100B7000DCCF8385F5CF25FF12C081858A171B0640
:100B800009F080F526FD03C080818F5F808337FDEB
:100B900010822F7D206131603483238323C030FF96
:100BA0000DC037FD03C0206134832383838194818A
:100BB0009E77948383835283418314C080818823EA
:100BC000F1F0C901807C9927892BA1F4828540E14D
:100BD000849FC0011124A817B90760F4878190850C
:100BE000892B51F48381948192FF9FCF9B7F9483C3
:100BF00083839BCF2160D0CF10861782F3CF31FF44
:100C0000F1CF2F733D7F38603483238310861782A2
:100C1000D2CFFC018381948193FF18C08FB7F894E1
:100C200040913704509138046091390470913A042E
:100C30008FBF81819281481B590B258580E1289FB8
:100C40009001112481E04217530708F480E00895D1
:100C5000CF93DF93DC011596ED91FC91309761F015
:100C6000EC010995CE010E940906882329F08B81A9
:100C70009C81977F9C838B83DF91CF91089590E037
:100C8000FC01EC56FE4FE491F0E0EE0FFF1FEE5931
:100C9000FE4FA591B4912C9188559E4FFC018491F3
:100CA000822391E009F490E0892F0895FC010190DE
:100CB0000020E9F73197AF01481B590BBC0187E4CD
:100CC00094E00C94BA028F929F92AF92BF920F93CE
:100CD0001F93CF93DF93CDB7DEB7A1970FB6F894EC
:100CE000DEBF0FBECDBF19A2423008F44AE08E012C
:100CF0000F5D1F4F842E912CB12CA12CA5019401C6
:100D00000E94BC1AE62FB901CA01EA30F4F4E05D92
:100D1000D801EE938D01232B242B252B79F790E01E
:100D200080E0109719F0CD010E945606A1960FB6EB
:100D3000F894DEBF0FBECDBFDF91CF911F910F9111
:100D4000BF90AF909F908F900895E95CE1CFCF93D3
:100D5000DF930E945606EC0189E491E00E9456065A
:100D60008C0F9D1FDF91CF910895CF93DF93FC01EE
:100D7000448155816081718187E494E00E94BA02C8
:100D8000EC0189E491E00E9456068C0F9D1FDF91D3
:100D9000CF910895CF92DF92EF92FF92CF93C82F19
:100DA000809103059091040580FD109200059C013F
:100DB0002F713327232B29F0807E90930405809395
:100DC00003058091120585FF03C08F7D8093120576
:100DD00080E095E00E94520520911505309116059E
:100DE00021153105C1F19091120521FF30C09061AC
:100DF000909312059091120522FF2BC0986090935A
:100E00001205E3E036952795EA95E1F7309316054C
:100E100020931505209103053091040525FFDEC0C0
:100E20003068309304052093030520910305309129
:100E3000040533FD05C03860309304052093030595
:100E400090911205906290931205C1E007C09F7EB9
:100E5000CFCF977FD4CFC7FF12C0C0E0C82B09F413
:100E6000C0C08091050590910605892B09F0C0C08E
:100E70008C2FCF91FF90EF90DF90CF9008959091BD
:100E80001305292F2295207F2595259525952595B4
:100E9000022E000C330B4C2F0C2E000C550B24177C
:100EA0003507D9F2220F331F220F331F242B352B86
:100EB000220F331F41E656E164E979E404C07595D9
:100EC0006795579547952A95D2F7437095959595CF
:100ED000959595959150490F4295407F459545953B
:100EE00045954595942F9295907F2C2F2F70922B9E
:100EF00090931305907F09F4B0CF90911205292F9C
:100F00002370213009F45BC008F455C0223009F485
:100F10005AC021E014160CF020E092FB332730F980
:100F2000231709F455C021E0309113053F70309329
:100F30001305C22E022E000CDD08EE08FF084091BA
:100F40000E0550910F0560911005709111054C0D23
:100F50005D1D6E1D7F1D40930E0550930F05609320
:100F60001005709311052130A9F590619093120539
:100F70009FB7F89440913704509138046091390438
:100F800070913A049FBF2091010530910205FA014A
:100F9000E21BF30B9F01E091140590911205509311
:100FA000020540930105E2171306B1F0A8F098601E
:100FB000909312052FCFC33009F04FCFAACFCC2387
:100FC00009F4A7CF4ACFC150C23008F0A2CF45CF15
:100FD0002FEFAACF9F7ECACF977FEACF109200054E
:100FE00024CF80E095E00E94090681113ACF40CFDE
:100FF00080E095E00E9428063BCF0F931F93CF938C
:101000008C01C62F0E94C8036C2F6460C8010E9427
:10101000C8036C2F6B7FC8010E94C80383EC90E06B
:101020000197F1F7CF911F910F9108950F931F939F
:10103000CF93DF938C01D62FC42F607F642B0E9447
:10104000FD0780E1D89FB00111246C2BC801DF910E
:10105000CF911F910F910C94FD07CF93DF93CDB7E4
:10106000DEB728970FB6F894DEBF0FBECDBF98E06D
:10107000E1E1F1E0DE01119601900D929A95E1F720
:101080009091EC04961710F46FEF690F262F30E063
:10109000220F331F41E050E04C0F5D1F240F351F1E
:1010A000F9016081680F606840E084EE94E0289662
:1010B0000FB6F894DEBF0FBECDBFDF91CF910C9479
:1010C0001608CF93DF93EB014C815D8123E130E083
:1010D000241B350B36952795682F81E0820F0E94DF
:1010E0002D084C815D816881798184EE94E0DF91E7
:1010F000CF910C94BA0240E061E084EE94E00E944B
:1011000016088BE39FE10197F1F78091ED048823A6
:1011100021F060E080E00C942D08089541E00E94E9
:10112000160881E090E008958F929F92AF92BF924F
:10113000CF92DF92EF92FF928CE491E00E94A7069B
:1011400088E591E00E94560660916D0370916E03F0
:1011500080916F03909170034AE00E94630685E6D8
:1011600091E00E94A70689E691E00E945606C09091
:101170000201D0900301E0900401F0900501A70165
:101180009601C701B6010E94061C882381F088E7FA
:1011900091E00E94560689EE92E0FF90EF90DF907A
:1011A000CF90BF90AF909F908F900C94A706460170
:1011B0005701E894B7F82FEF3FEF4FE75FE7C5011E
:1011C000B4010E94061C81110DC02FEF3FEF4FE7C5
:1011D0005FE7C501B4010E94191918161CF48CE7C9
:1011E00091E0D7CF2FEF3FEF4FE75FE4C701B601A4
:1011F0000E94011C18161CF480E891E0CACF2FEF62
:101200003FEF4FE75FECC701B6010E94191987FD58
:10121000F3CF20E030E0A901C701B6010E941919FF
:1012200087FF09C06DE287E494E00E945A03F7FA51
:10123000F094F7F8F0942AE037ED43EA5BE3C70156
:10124000B6010E94F41A4B015C010E94D21B6B0193
:101250007C010E941E199B01AC01C501B4010E94D2
:10126000F31A4B015C014AE0C701B6010E94630614
:101270006EE287E494E00E945A0320E030E040E20E
:1012800051E4C501B4010E947F194B015C010E9429
:10129000D21B6B01F12CE12C4AE0C701B6010E9480
:1012A0006306C701B6010E941E199B01AC01C5016E
:1012B000B4010E94F31A20E030E040E251E40E94C1
:1012C0007F190E94D21B90E080E04AE00E946306F2
:1012D00062CF61E082E00E94D70160E082E00E947C
:1012E000D7018091660390916703A0916803B09144
:1012F000690340916D0350916E0360916F0370918B
:101300007003840F951FA61FB71F809366039093E9
:101310006703A0936803B09369038091660390917B
:101320006703A0916803B091690380349244AF4091
:10133000B105E0F0809176038F5F8093760381E0C2
:10134000809371038091660390916703A091680375
:10135000B091690380549244AF40B1098093660311
:1013600090936703A0936803B093690308952F9245
:101370003F924F925F926F927F928F929F92AF9225
:10138000BF92CF92DF92EF92FF920F931F93CF9372
:10139000DF9300D000D000D0CDB7DEB74C01362EA1
:1013A000242E2DB73EB73E832D83DC011496ED909D
:1013B000FC90FA82E9822701B1E04B1A51088701BB
:1013C000000F111FEDB7FEB7E01BF10B0FB6F8943D
:1013D000FEBF0FBEEDBF2DB73EB72F5F3F4F590188
:1013E0006901F90190E080E08E159F059CF1052CC4
:1013F000000C660877083FEF431A530A630A730A22
:101400000A0D1B1D81E0E81AF108025011091E1493
:101410001F0424F50E946016D8010D90BC91A02DE8
:10142000BC83AB83A30192010E94531A660F771FFE
:10143000F501E60FF71F80819181D8018D939C9370
:101440002B813C813183208331E0431A51086108AC
:101450007108D8CF819391930196C6CF10E000E038
:1014600089819A81081719077CF5D601FC9011969D
:10147000EC90B2E0CB0ED11C622D832D8F0D0E941B
:101480002D088F2D9E2DF40124813581821793071D
:1014900028F40190F081E02D309799F410923604F1
:1014A000E6E3F4E041E0608184EE94E00E941608F7
:1014B00066E970E080E090E00E9487020F5F1F4FB6
:1014C000CFCFE80FF91FEECF2D813E810FB6F894F4
:1014D0003EBF0FBE2DBF26960FB6F894DEBF0FBEDF
:1014E000CDBFDF91CF911F910F91FF90EF90DF90D3
:1014F000CF90BF90AF909F908F907F906F905F90B4
:101500004F903F902F90089585ED8093BC0080917F
:10151000C3039091C403A091C503B091C60307967D
:10152000A11DB11D23E0B695A795979587952A959E
:10153000D1F72091BC0024FD03C01092100408953F
:101540004091C3035091C4036091C5037091C603D9
:10155000452B462B472B69F30097A105B10541F0B8
:101560002AE22A95F1F700C00197A109B109E1CF5C
:101570008091C2030C9441020F931F93CF93DF938A
:10158000EC0188819981009759F02A813B812617C7
:10159000370730F081E0DF91CF911F910F910895CF
:1015A0008B016F5F7F4F0E94301D009759F0998328
:1015B00088831B830A832C813D81232B59F7FC01EF
:1015C0001082E8CF80E0E7CFEF92FF920F931F9356
:1015D000CF93DF936115710541F480E0DF91CF91E6
:1015E0001F910F91FF90EF90089541155105B1F0B3
:1015F0007B01EC010C811D81040F151FB8010E94B5
:10160000BC0A882351F3288139818C819D81B701DF
:10161000820F931F0E94F61D1D830C8381E0DECF95
:10162000CF93DF93EC0188819981009711F00E949C
:10163000A71C198218821D821C821B821A82DF91CC
:10164000CF910895CF93DF93EC01FB01019000202F
:10165000E9F73197AF01461B570B0E94E40A81114D
:1016600003C0CE010E94100BCE01DF91CF910895EF
:10167000CF93DF93EC01FB0144815581608171813F
:101680000E94E40A811103C0CE010E94100BCE011A
:10169000DF91CF910895EF92FF920F931F93CF9315
:1016A000DF93EC017B018A01BA010E94BC0A81111F
:1016B0000BC0CE010E94100BCE01DF91CF911F9184
:1016C0000F91FF90EF9008951D830C83B7018881DF
:1016D00099810E94F61DF0CFFB0101900020E9F7EF
:1016E0003197AF01461B570B0C944B0B0F931F9375
:1016F000CF93DF93CDB7DEB761970FB6F894DEBF17
:101700000FBECDBF8C01CB01F80111821082138274
:101710001282158214824AE0BE016F5F7F4F0E94E1
:10172000B816BE016F5F7F4FC8010E946C0B6196B7
:101730000FB6F894DEBF0FBECDBFDF91CF911F91E2
:101740000F9108950F931F93CF93DF93CDB7DEB71B
:1017500029970FB6F894DEBF0FBECDBF8C01862F40
:10176000F8011182108213821282158214824AE0DB
:10177000BE016F5F7F4F90E00E94B816BE016F5FA1
:101780007F4FC8010E946C0B29960FB6F894DEBFFC
:101790000FBECDBFDF91CF911F910F910895EF92B2
:1017A000FF920F931F93CF93DF93CDB7DEB7A1972F
:1017B0000FB6F894DEBF0FBECDBF7C01CB01BA01DE
:1017C000F7011182108213821282158214828E0117
:1017D0000F5F1F4F22E044E00E94F615009789F04A
:1017E000BC01C7010E946C0BA1960FB6F894DEBF36
:1017F0000FBECDBFDF91CF911F910F91FF90EF9062
:101800000895C7010E94100BEFCFFB01DC01119678
:101810001C921E9213961C921E92129715961C9261
:101820001E9214978617970749F0608171816115A0
:10183000710521F0448155810C944B0B0895FC01F6
:10184000118210821382128215821482FB01019090
:101850000020E9F73197AF01461B570B0C944B0B57
:10186000FC0180819181009711F00C94A71C0895D0
:10187000DF92EF92FF920F931F93CF93DF93CDB739
:10188000DEB72C970FB6F894DEBF0FBECDBF82E057
:10189000E82E81E0F82E10E000E0F701D1907F0102
:1018A000C8010E943D1AD81621F06D2DC8010E9472
:1018B000451A0F5F1F4F0430110579F76AE070E099
:1018C00080E090E00E948702409102015091030164
:1018D0006091040170910501CE0107960E94CF0B23
:1018E00064E871E0CE0101960E941F0CBE01695FA1
:1018F0007F4FCE0101960E94380B0E94B506CE01A3
:1019000001960E94300CCE0107960E94300C2C9656
:101910000FB6F894DEBF0FBECDBFDF91CF911F9100
:101920000F91FF90EF90DF9008951F920F920FB6E6
:101930000F9211242F933F934F935F936F937F9355
:101940008F939F93AF93BF93EF93FF938091B900D1
:10195000887F803609F44AC0F0F5883209F4A7C0C0
:1019600018F5803109F49BC0B8F4882309F4F9C054
:10197000883009F494C0FF91EF91BF91AF919F918E
:101980008F917F916F915F914F913F912F910F9028
:101990000FBE0F901F901895883109F488C08032CF
:1019A00051F780930F0414C0803409F49DC040F4B3
:1019B0008033B9F38833F9F680930F0485ECB0C017
:1019C000803509F485C0883509F496C0883499F6C5
:1019D0000E94840AD0CF883909F48CC038F5883742
:1019E00029F050F4883611F0803729F683E080938F
:1019F000100410920E0457C0883809F47BC0803957
:101A000019F0803809F0B7CF80910E04803208F0C9
:101A100071C0E0910E0481E08E0F80930E048091DE
:101A2000BB00F0E0E251FC4F80833DC0803B39F0C9
:101A3000E0F4803A09F479C0883A09F09CCF84E058
:101A4000809310041092EB031092EA03E091E803F4
:101A5000F091E90309958091EA0381110FC081E0BB
:101A60008093EA031092C80309C0803C09F4A6CF12
:101A7000883C09F4A3CF883B09F07DCFE091EB03CC
:101A800081E08E0F8093EB03F0E0E853FC4F808100
:101A90008093BB009091EB038091EA0329C0809171
:101AA00035048093BB0085EC8093BC0064CF90919B
:101AB000340480913304981758F5E091340481E0A0
:101AC0008E0F80933404F0E0ED5EFB4F8081E9CF10
:101AD000E091340481E08E0F809334048091BB0048
:101AE000F0E0ED5EFB4F80839091340480913304ED
:101AF0009817C8F285E8D8CFE091340481E08E0FC2
:101B0000809334048091BB00F0E0ED5EFB4F808356
:101B10008091120481115CCF81E08093110484EAEA
:101B20008093BC001092100426CF85EC8093BC00FB
:101B30001092100480910E04803230F4E0910E0473
:101B4000F0E0E251FC4F108260910E0470E0E091F1
:101B5000EC03F091ED038EEE93E0099510920E04E4
:101B60000ACF10920F0434CF1F920F920FB60F922C
:101B700011242F933F938F939F93AF93BF938091A3
:101B8000370490913804A0913904B0913A0430910F
:101B9000780323E0230F2D3758F50196A11DB11DC1
:101BA000209378038093370490933804A0933904EA
:101BB000B0933A048091790390917A03A0917B03CA
:101BC000B0917C030196A11DB11D80937903909380
:101BD0007A03A0937B03B0937C03BF91AF919F9155
:101BE0008F913F912F910F900FBE0F901F901895DE
:101BF00026E8230F0296A11DB11DD2CF1F920F928E
:101C00000FB60F9211242F933F934F935F936F93CF
:101C10007F938F939F93AF93BF93EF93FF9387E44B
:101C200094E00E943803FF91EF91BF91AF919F9193
:101C30008F917F916F915F914F913F912F910F9075
:101C40000FBE0F901F9018951F920F920FB60F9214
:101C500011242F938F939F93EF93FF93E091570459
:101C6000F09158048081E0915D04F0915E0482FD62
:101C70001BC09081809160048F5F8F7320916104FD
:101C8000821741F0E0916004F0E0E95BFB4F958F33
:101C900080936004FF91EF919F918F912F910F900E
:101CA0000FBE0F901F9018958081F4CF1F920F9256
:101CB0000FB60F9211242F933F934F935F936F931F
:101CC0007F938F939F93AF93BF93EF93FF93E09195
:101CD0000001F09101010995FF91EF91BF91AF9142
:101CE0009F918F917F916F915F914F913F912F9134
:101CF0000F900FBE0F901F9018959F92AF92BF92BA
:101D0000CF92DF92EF92FF920F931F93CF93DF93C7
:101D1000EBE3F4E01382128288EE93E0A0E0B0E0FF
:101D200084839583A683B7832DE131E031832083BB
:101D3000E7E4F4E01382128284839583A683B78359
:101D40008FE291E09183808385EC90E09587848792
:101D500084EC90E09787868780EC90E0918B808B75
:101D600081EC90E0938B828B82EC90E0958B848B5E
:101D700086EC90E0978B868B118E128E138E148ECC
:101D8000C0E0D5E01A8219821C821B821E821D824D
:101D900018861F8282E3A82EA9869FE1B92EBA86F3
:101DA00025E2C22ECB863CE0D32EDC864EE3E42E29
:101DB000ED861E861F86188A198A1A8A03E115E0A5
:101DC000F80110828EE18C8B1E8A1D8A54E0F52E5C
:101DD000FF8A85E0888F86E0898F54985C982DEA89
:101DE00031E0F901449189E991E0FC015491E52F3A
:101DF000F0E0EE0FFF1FE657FE4FA591B4915C9106
:101E0000409545234C93F9012491FC018491E82FDE
:101E1000F0E0EE0FFF1FE058FE4FA591B4918C91BA
:101E2000209528232C93898D90E09C0128553E4FC6
:101E3000F90144918C569E4FFC015491E52FF0E03E
:101E4000EE0FFF1FE657FE4FA591B4915C914095B0
:101E500045234C93F9012491FC018491E82FF0E093
:101E6000EE0FFF1FE058FE4FA591B4918C91282BE7
:101E70002C938B819C8190619C838B838F890E94A2
:101E80003F06982E888D0E943F06880F8929982F3B
:101E90009F70F8018081807F892B8083E1EFF4E0DF
:101EA0001282118214821382168215821086178282
:101EB000A186B286C386D486E58688E08687209888
:101EC000289A80E090E194838383E4EEF4E0138227
:101ED000128281E491E091838083118687E284837A
:101EE00084E18287F3861486DF91CF911F910F9151
:101EF000FF90EF90DF90CF90BF90AF909F900895AC
:101F0000CF93DF93CDB7DEB7A4970FB6F894DEBFBB
:101F10000FBECDBF789484B5826084BD84B58160E6
:101F200084BD85B5826085BD85B5816085BD8091A4
:101F30006E00816080936E0010928100809181001C
:101F40008260809381008091810081608093810014
:101F5000809180008160809380008091B1008460D6
:101F60008093B1008091B00081608093B000809137
:101F70007A00846080937A0080917A0082608093F6
:101F80007A0080917A00816080937A0080917A0053
:101F9000806880937A001092C100E0915704F0911C
:101FA000580482E08083E0915304F091540410823D
:101FB000E0915504F091560480E1808310925F0413
:101FC000E0915B04F0915C0486E08083E091590429
:101FD000F0915A04808180618083E0915904F091EE
:101FE0005A04808188608083E0915904F0915A04FA
:101FF000808180688083E0915904F0915A04808147
:102000008F7D808389E491E00E94560665E070E050
:1020100080E090E00E94870290E080E00E943D1AFC
:102020008093020181E090E00E943D1A80930301B9
:1020300082E090E00E943D1A8093040183E090E0EA
:102040000E943D1A809305016AE070E080E090E014
:102050000E948702409102015091030160910401A6
:1020600070910501CE0101960E94CF0B67E971E0E6
:10207000CE0107960E941F0CBE016F5F7F4FCE01FD
:1020800007960E94380B0E94B506CE0107960E9463
:10209000300CCE0101960E94300C3DECC32E3CEC7E
:1020A000D32EED2C3DE3F32E6091020170910301DC
:1020B00080910401909105019B01AC010E94061CD6
:1020C000882359F0C0920201D0920301E0920401EA
:1020D000F09205010E94380CE7CF1092BF031092D6
:1020E000BE031092C1031092C0030E9423028FE42A
:1020F00091E09093E9038093E80380E591E0909369
:10210000ED038093EC031092E9048091EF04823098
:1021100018F098E09093E9048093EC0462E370E097
:1021200080E090E00E9487026091F00484EE94E0E9
:102130000E94C80368EE73E080E090E00E9487028E
:1021400060E384EE94E00E94FD070BE416E4C8010E
:102150000197F1F760E384EE94E00E94FD07C80167
:102160000197F1F760E384EE94E00E94FD0783E5B8
:1021700092E00197F1F760E284EE94E00E94FD079F
:102180006091E904606240E084EE94E00E941608E9
:1021900084E08093EA0440E06CE084EE94E00E94E6
:1021A00016080E947B0882E08093EB0440E066E022
:1021B00084EE94E00E94160840E062E084EE94E031
:1021C0000E9416088BE39FE10197F1F788E0809366
:1021D000F00460E084EE94E00E94C80382E00E9474
:1021E000090183E00E94090187E00E9409018DE056
:1021F0000E94090180E480937C0080917A008064D1
:1022000080937A0080917A0086FDFCCF60917800FF
:1022100070917900072E000C880B990B61157105E0
:102220008105910511F00E94AF1661E087E00E94E0
:10223000D70161E083E00E94D7010E947B086AEA2F
:1022400071E0CE0101960E941F0CBE016F5F7F4FAF
:1022500080E00E946108CE0101960E94300C68EE79
:1022600073E080E090E00E94870262EB71E0CE01B3
:1022700001960E941F0C42E061E0CE0101960E948F
:10228000B709CE0101960E94300C64EC71E0CE01DA
:1022900001960E941F0C43E068E0CE0101960E9467
:1022A000B709CE0101960E94300C68EE73E080E021
:1022B00090E00E9487020E947B0869EC71E0CE01E9
:1022C00001960E941F0CBE016F5F7F4F81E00E944C
:1022D0006108CE0101960E94300C6FEC71E0CE01D6
:1022E00001960E941F0CBE016F5F7F4F82E00E942B
:1022F0006108CE0101960E94300C60ED77E080E02D
:1023000090E00E9487020E947B080E94B304209103
:102310006D0330916E0340916F035091700380E123
:102320008093810010928000A0EAB0E00E94721AAF
:102330006B017C0124E130E040E050E00E94BC1AD7
:102340002115310581E04807510508F022C181E0DF
:102350008093770330936C0320936B0380916B031E
:1023600090916C039093870080938600809177030F
:1023700080618093810089E699E0909301018093C8
:10238000000111E010936F0080E18093810089E4E7
:1023900091E00E94560684EE91E00E94A7060E94FA
:1023A00094081093710320E1B22E00E010E08091B8
:1023B0007103882379F010927103809106018130B6
:1023C00009F494C108F42DC1823009F4E2C18330CC
:1023D00009F4B6C2809119059091120597FF58C370
:1023E0000E943F06682F8FEF0E94CA068091FF046B
:1023F0000E943F062091F4043091F50420FD1092D4
:10240000F104A9014F715527452B29F0207E309307
:10241000F5042093F404682F81EF94E00E945205A4
:10242000882309F445C38091F6049091F704892B21
:1024300009F045C32091120525FF48C0809106018F
:10244000811164C0609102017091030180910401C7
:102450009091050124FF6FC32DEC3CEC4CEC5DE347
:102460000E94F41A609302017093030180930401A7
:1024700090930501C0900201D0900301E090040107
:10248000F09005012DEC3CEC4CEC5DE3C701B6018E
:102490000E94191987FF56C38BEB92E00E94A70692
:1024A0009DECC92E9CECD92EED2C9DE3F92EC0920B
:1024B0000201D0920301E0920401F09205010E9412
:1024C000B3040E94940881E0809371038091030516
:1024D00090910405807591704097A1F48091060158
:1024E0009EEF980F923070F0811142C381E080938B
:1024F000060181E293E00E94A7060E947B0881E02A
:1025000080937103809106018823B9F12091F4042E
:102510003091F504A901407551704031510509F021
:102520003EC3833051F1813009F02AC30E94380C38
:1025300060E087E00E94D701109281001092850030
:10254000109284008091770380618093810082E003
:102550008093060184E493E00E94A706109276031C
:102560001092750310927403109273031092720309
:102570000E947B0881E0809371030115110509F425
:1025800016CF0E942403882309F411CF0E94000073
:102590000ECF2115310588E04807510560F482E02F
:1025A00080937703C701B60120EA30E040E050E0B5
:1025B0000E94BC1ACFCE2115310580E44807510591
:1025C00050F483E080937703C701B60120E035E043
:1025D00040E050E0EDCF21153105410581E058077D
:1025E00050F484E080937703C701B60120E034E122
:1025F00040E050E0DDCF85E0809377032115310581
:102600004105544038F4C701B60120E030E540E010
:1026100050E0CECF8FEF9FEF90936C0380936B03CE
:102620009DCE6CEE71E0CE0101960E941F0CBE01A2
:102630006F5F7F4F80E00E946108CE0101960E948B
:10264000300C40910201509103016091040170919E
:102650000501CE0107960E94CF0B67EF71E0CE0116
:102660000D960E941F0CBE01695F7F4FCE010D9633
:102670000E94380B61E072E00E94220BBC01CE0187
:1026800001960E94050CBE016F5F7F4F81E00E94A2
:102690006108CE0101960E94300CCE010D960E9479
:1026A000300CCE0107960E94300C63E072E0CE0140
:1026B00001960E941F0CBE016F5F7F4F82E00E9457
:1026C0006108CE0101960E94300C68E172E0CE01F3
:1026D00001960E941F0CBE016F5F7F4F83E00E9436
:1026E0006108CE0101960E94300C74CE4091020127
:1026F000509103016091040170910501CE0107968C
:102700000E94CF0B6AE272E0CE010D960E941F0C70
:10271000BE01695F7F4FCE010D960E94380BBC0150
:10272000CE0101960E94050CBE016F5F7F4F80E0D5
:102730000E946108CE0101960E94300CCE010D96D8
:102740000E94300CCE0107960E94300C67E372E0C5
:10275000CE0101960E941F0CBE016F5F7F4F81E08A
:102760000E946108CE0101960E94300C66E472E07E
:10277000CE0101960E941F0CBE016F5F7F4F82E069
:102780000E946108CE0101960E94300C69E572E05A
:102790009ECF809176038C3360F010927603809107
:1027A00074038F5F8C3308F0ACC0809374030E9475
:1027B0007B0860917603CE0107960E94A20B609180
:1027C0007403CE010D960E94A20B60917503CE0199
:1027D00043960E94A20B6091720370917303CE0125
:1027E00049960E94760B6CE672E0CE014F960E94ED
:1027F0001F0CBE01675E7F4FCE014F960E94380BC3
:1028000063E772E00E94220BBE016D5E7F4F0E9463
:10281000380B65EF71E00E94220BBE01635F7F4FB2
:102820000E94380B65EF71E00E94220BBE01695FC8
:102830007F4F0E94380BBC01CE0101960E94050C0F
:10284000BE016F5F7F4F80E00E946108CE0101965C
:102850000E94300CCE014F960E94300CCE0149965A
:102860000E94300CCE0143960E94300CCE010D9692
:102870000E94300CCE0107960E94300C409102015C
:10288000509103016091040170910501CE010796FA
:102890000E94CF0B66E772E0CE010D960E941F0CDE
:1028A000BE01695F7F4FCE010D960E94380BBC01BF
:1028B000CE0101960E94050CBE016F5F7F4F81E043
:1028C0000E946108CE0101960E94300CCE010D9647
:1028D0000E94300CCE0107960E94300C6DE772E02A
:1028E000CE0101960E941F0CBE016F5F7F4F82E0F8
:1028F0000E946108CE0101960E94300C6FE872E0E0
:10290000E6CE10927403809175038F5F883118F4BE
:10291000809375034CCF1092750380917203909150
:1029200073030196803127E2920728F49093730392
:10293000809372033CCF109273031092720337CFCF
:1029400069E872E0CE0101960E941F0CBE016F5F24
:102950007F4F80E00E946108CE0101960E94300CFA
:1029600040910201509103016091040170910501B1
:10297000CE0107960E94CF0B66E772E0CE010D965E
:102980000E941F0CBE01695F7F4FCE010D960E9411
:10299000380BBC01CE0101960E94050CBE016F5F91
:1029A0007F4F81E00E946108CE0101960E94300CA9
:1029B000CE010D960E94300CCE0107960E94300C7D
:1029C00060917603CE0107960E94A20B609174037A
:1029D000CE010D960E94A20B60917503CE01439625
:1029E0000E94A20B6091720370917303CE0149960D
:1029F0000E94760B61EA72E0CE014F960E941F0C96
:102A0000BE01675E7F4FCE014F960E94380B63E791
:102A100072E00E94220BBE016D5E7F4F0E94380B58
:102A200065EF71E00E94220BBE01635F7F4F0E9441
:102A3000380B65EF71E00E94220BBE01695F7F4F8A
:102A40000E94380BBC01CE0101960E94050CBE010C
:102A50006F5F7F4F82E00E946108CE0101960E9465
:102A6000300CCE014F960E94300CCE0149960E9448
:102A7000300CCE0143960E94300CCE010D960E9480
:102A8000300CCE0107960E94300C68EA72E01FCE2F
:102A90000E943F06E82E809117050E943F06F82EFF
:102AA000809118050E943F06880F6E2D8F299CCCBF
:102AB00081EF94E00E9409068111B5CCBBCC8091D6
:102AC000F4049091F504917084369105C1F0E0F41E
:102AD00082329105A1F068F48130910581F0409730
:102AE00071F081EF94E00E940906882309F4A2CCDA
:102AF00006C08134910519F08035910591F781EF79
:102B000094E00E94280696CC883E9105C1F338F4E3
:102B1000813C9105A1F3803D910589F3E2CF803599
:102B200021E0920761F3803D21E0920741F380317B
:102B30009140B9F6E4CF2DEC3CEC4CEC5DE30E9407
:102B4000F31A90CC20E030E040EC50E4C701B6012D
:102B50000E94011C18160CF0AACC8EEE92E00E9486
:102B6000A706C12CD12C80ECE82E80E4F82E9FCC57
:102B7000813009F0C2CC1092060183E393E0BBCC14
:102B8000823009F0EBCCB092810061E087E00E94D6
:102B9000D70181E08093060181E293E0DDCC22FF42
:102BA000ECCC823008F4E9CC823071F4B092810030
:102BB00060E087E00E94D70183E08093060184E50E
:102BC00093E00E94A706D4CC833009F0D1CC60E01A
:102BD00087E00E94D7018091770380618093810014
:102BE00082E08093060184E493E0EBCFEF920F93B1
:102BF0001F93CF93DF93E80134E047FD34E1042EC7
:102C0000000C550B57FF03C0519541955109E32E18
:102C1000022F242FAE010E94D216CE01DF91CF9158
:102C20001F910F91EF9008958F929F92AF92BF9254
:102C3000CF92DF92EF92FF92CF93DF93EC01688106
:102C400079818A819B81611571058105910521F446
:102C500064E279ED8BE597E02DE133EF41E050E060
:102C60000E94531A49015A019B01AC01A7EAB1E441
:102C70000E94721A6B017C01ACEEB4EFA5019401C5
:102C80000E94801AC60ED71EE81EF91EF7FE06C067
:102C900081E0C81AD108E10880E8F80AC882D98220
:102CA000EA82FB82C701B6019F77DF91CF91FF9047
:102CB000EF90DF90CF90BF90AF909F908F9008954E
:102CC0008F929F92AF92BF92CF92DF92EF92FF923C
:102CD00060910701709108018091090190910A01AA
:102CE000611571058105910521F464E279ED8BE5AB
:102CF00097E02DE133EF41E050E00E94531A490183
:102D00005A019B01AC01A7EAB1E40E94721A6B015F
:102D10007C01ACEEB4EFA50194010E94801AC60EAE
:102D2000D71EE81EF91EF7FE06C081E0C81AD108BA
:102D3000E10880E8F80AC0920701D0920801E09209
:102D40000901F0920A01C701B6019F77FF90EF9049
:102D5000DF90CF90BF90AF909F908F900895609339
:102D60000701709308018093090190930A01089567
:102D7000BB27FB015527AA27880F991FAA1FA41755
:102D800010F0A41B83955051B9F7A05DAA3308F049
:102D9000A95DA193009779F7B111B1931192CB017D
:102DA0000C940919A9E0B0E0E8EDF6E10C948B1A57
:102DB0006A01F22EB02E102FFBE3AF2EA01608F4FE
:102DC0001BE31F5F012F27E0AE014F5F5F4F0E94A3
:102DD0003118BC018981982F9970913009F43FC056
:102DE0009BE2E1FC04C09E2D9170E0FC3AC05E2D98
:102DF0005071E82FE87083FF46C084E0911101C054
:102E000083E0EF2DE81B8F1508F0E0E0D6018E2F50
:102E100020E2552351F1992329F0D6019C93C60154
:102E200001966C0196012D5F3F4FE2FE24C08EE4B7
:102E3000D6018C9391E411969C93119712968C93E2
:102E4000D9018E2F90E281111BC0E20FF32FF11DEB
:102E500010828EEF9FEF2996ECE00C94A71A9DE26A
:102E6000C6CF90E2C4CF2D9381508111FCCFCE0EFE
:102E7000D11CE0E0D0CF8EE6D6018C9391E6DBCF7B
:102E80009D938150E0CF482F447082FF3DC084E085
:102E9000911101C083E08F1510F4EF2DE81BD601CE
:102EA0008E2F20E2552309F1992329F0D6019C9316
:102EB000C60101966C0196012D5F3F4FE2FE1BC0DB
:102EC00089E4D6018C938EE411968C93119786E455
:102ED00012968C93D9018E2F90E2882309F4B5CFF6
:102EE0009D938150FACF2D9381508111FCCFCE0E4E
:102EF000D11CE0E0D9CF89E6D6018C938EE61196FD
:102F00008C93119786E6E4CF9B0177FF02C030E0F7
:102F100020E0A1E0B0E0911102C0B0E0A0E0F90132
:102F20003196AE0FBF1F8B2C912CBB2009F461C0D2
:102F30005401EFEFAE1ABE0AAA0DBB1DFA161B060E
:102F400019F014F04F2D4A1B511188C0E3FC59C0F1
:102F50007601A42FB0E2A1114FC0C40ED11C992359
:102F600009F45BC040E0D6011196F60190836D0133
:102F7000552309F448C0012F060F9A81582F50712C
:102F800084FF03C0913309F4015010160CF047C0C0
:102F9000093008F008E0EEE2FE2E5B01A01AB1084D
:102FA00085019194819491082F3F320729F4D6012D
:102FB000FC92F60131966F016217730794F10217C4
:102FC00013077CF5DB01A21BB30BAA24A394B12C3D
:102FD000AC0EBD1EAA0DBB1D11968C91215031095E
:102FE000D601119628153905F4F0F60180836D019C
:102FF000DBCFB12CA12CA0CFF701B1937F01A15061
:10300000AACF9111B0CFD601942F50E302C05D93A7
:1030100091509111FCCFC40ED11C40E0ACCF01E027
:10302000BACF80E3DBCF6217730731F4963388F4AD
:10303000953311F4552369F0F6018083FD01842F47
:1030400090E2811108C0A40FB11D1C9290E080E0B5
:1030500002CF81E3F1CF91938150F3CF911183CFD0
:103060008ACF283008F027E03327DA01990F311D85
:1030700087FD916000966105710539F432602E5F1D
:103080003D9330E32A95E1F708959F3F30F0803873
:103090007105610509F03C5F3C5F3D93913008F09C
:1030A0008068911DDF93CF931F930F93FF92EF9250
:1030B000192F987F9695E92F96959695E90FFF27FA
:1030C000EE53FF4F99273327EE24FF24A701E70192
:1030D00005900894079428F4360FE71EF81E491F40
:1030E000511D660F771F881F991F0694A1F7059041
:1030F000079428F4E70EF81E491F561FC11D770FCD
:10310000881F991F661F0694A1F70590079428F45D
:10311000F80E491F561FC71FD11D880F991F661F24
:10312000771F0694A1F70590079420F4490F561FC6
:10313000C71FD81F990F661F771F881F0694A9F70E
:1031400084911095177041F0D695C795579547957E
:10315000F794E7941A95C1F7E8E6F0E068941590C3
:10316000159135916591959105907FE27395E118E0
:10317000F10A430B560BC90BD009C0F7E10CF11E45
:10318000431F561FC91FD01D7EF4703311F48A955A
:10319000E6CFE894015030F0080F0AF40027021738
:1031A00008F4202F2395022F7A3328F079E37D93BA
:1031B0002A95E9F710C07D932A9589F6069497958C
:1031C0006795379517951794E118F10A430B560B3D
:1031D000C90BD00998F023957E9173957A3308F046
:1031E00070E37C932013B8F77E9170617D9330F08B
:1031F000839571E37D9370E32A95E1F71124EF90B5
:10320000FF900F911F91CF91DF91992787FD9095A6
:103210000895DC01FC01672F71917723E1F7329764
:1032200004C07C916D9370836291AE17BF07C8F3A1
:1032300008950E945B1908F481E00895E89409C09C
:1032400097FB3EF490958095709561957F4F8F4FD9
:103250009F4F9923A9F0F92F96E9BB279395F695EF
:10326000879577956795B795F111F8CFFAF4BB0F6D
:1032700011F460FF1BC06F5F7F4F8F4F9F4F16C0D1
:10328000882311F096E911C0772321F09EE8872F5B
:10329000762F05C0662371F096E8862F70E060E017
:1032A0002AF09A95660F771F881FDAF7880F969590
:1032B000879597F90895990F0008550FAA0BE0E834
:1032C000FEEF16161706E807F907C0F012161306E8
:1032D000E407F50798F0621B730B840B950B39F428
:1032E0000A2661F0232B242B252B21F408950A268E
:1032F00009F4A140A6958FEF811D811D08950E94BC
:1033000092190C94031A0E94F51938F00E94FC19C6
:1033100020F0952311F00C94EC190C94F21911245F
:103320000C94371A0E94141A70F3959FC1F3950FED
:1033300050E0551F629FF001729FBB27F00DB11D39
:10334000639FAA27F00DB11DAA1F649F6627B00DC9
:10335000A11D661F829F2227B00DA11D621F739FB2
:10336000B00DA11D621F839FA00D611D221F749FC0
:103370003327A00D611D231F849F600D211D822F07
:10338000762F6A2F11249F5750409AF0F1F088232E
:103390004AF0EE0FFF1FBB1F661F771F881F91505B
:1033A0005040A9F79E3F510580F00C94EC190C9405
:1033B000371A5F3FE4F3983ED4F386957795679587
:1033C000B795F795E7959F5FC1F7FE2B880F911D85
:1033D0009695879597F9089597F99F6780E870E02B
:1033E00060E008959FEF80EC089500240A9416167B
:1033F000170618060906089500240A9412161306E3
:10340000140605060895092E0394000C11F4882370
:1034100052F0BB0F40F4BF2B11F460FF04C06F5F8C
:103420007F4F8F4F9F4F089557FD9058440F551F62
:1034300059F05F3F71F04795880F97FB991F61F036
:103440009F3F79F087950895121613061406551FAD
:10345000F2CF4695F1DF08C0161617061806991F19
:10346000F1CF86957105610508940895E894BB270E
:1034700066277727CB0197F90895F999FECF92BD7A
:1034800081BDF89A992780B50895262FF999FECF26
:103490001FBA92BD81BD20BD0FB6F894FA9AF99A71
:1034A0000FBE01960895052E97FB1EF400940E940E
:1034B0006A1A57FD07D00E94BC1A07FC03D04EF4CD
:1034C0000C946A1A50954095309521953F4F4F4F77
:1034D0005F4F089590958095709561957F4F8F4FC0
:1034E0009F4F08950E94DE1AA59F900DB49F900DE6
:1034F000A49F800D911D11240895B7FF0C94721A9A
:103500000E94721A821B930B08952F923F924F9242
:103510005F926F927F928F929F92AF92BF92CF9263
:10352000DF92EF92FF920F931F93CF93DF93CDB76C
:10353000DEB7CA1BDB0B0FB6F894DEBF0FBECDBFE4
:1035400009942A88398848885F846E847D848C84B5
:103550009B84AA84B984C884DF80EE80FD800C81BE
:103560001B81AA81B981CE0FD11D0FB6F894DEBFA1
:103570000FBECDBFED010895A1E21A2EAA1BBB1B01
:10358000FD010DC0AA1FBB1FEE1FFF1FA217B3072F
:10359000E407F50720F0A21BB30BE40BF50B661F45
:1035A000771F881F991F1A9469F760957095809509
:1035B00090959B01AC01BD01CF010895A29FB00180
:1035C000B39FC001A39F700D811D1124911DB29F57
:1035D000700D811D1124911D0895EE0FFF1F0590A0
:1035E000F491E02D09945058BB27AA270E940B1B89
:1035F0000C94031A0E94F51938F00E94FC1920F06F
:1036000039F49F3F19F426F40C94F2190EF4E09566
:10361000E7FB0C94EC19E92F0E94141A58F3BA171F
:10362000620773078407950720F079F4A6F50C94D8
:10363000361A0EF4E0950B2EBA2FA02D0B01B9010E
:1036400090010C01CA01A0011124FF27591B99F018
:10365000593F50F4503E68F11A16F040A22F232F24
:10366000342F4427585FF3CF469537952795A79574
:10367000F0405395C9F77EF41F16BA0B620B730B1B
:10368000840BBAF09150A1F0FF0FBB1F661F771F8C
:10369000881FC2F70EC0BA0F621F731F841F48F441
:1036A000879577956795B795F7959E3F08F0B0CFCA
:1036B0009395880F08F09927EE0F979587950895B1
:1036C0000E94741B0C94031A0E94FC1958F00E946B
:1036D000F51940F029F45F3F29F00C94EC195111D1
:1036E0000C94371A0C94F2190E94141A68F3992357
:1036F000B1F3552391F3951B550BBB27AA276217EE
:103700007307840738F09F5F5F4F220F331F441FFA
:10371000AA1FA9F335D00E2E3AF0E0E832D091502E
:103720005040E695001CCAF72BD0FE2F29D0660F1B
:10373000771F881FBB1F261737074807AB07B0E85E
:1037400009F0BB0B802DBF01FF2793585F4F3AF064
:103750009E3F510578F00C94EC190C94371A5F3F9A
:10376000E4F3983ED4F3869577956795B795F795EA
:103770009F5FC9F7880F911D9695879597F90895D2
:10378000E1E0660F771F881FBB1F6217730784076E
:10379000BA0720F0621B730B840BBA0BEE1F88F77D
:1037A000E09508950E941C1A88F09F5798F0B92F51
:1037B0009927B751B0F0E1F0660F771F881F991F66
:1037C0001AF0BA95C9F714C0B13091F00E94361AB8
:1037D000B1E008950C94361A672F782F8827B85FC8
:1037E00039F0B93FCCF3869577956795B395D9F7BE
:1037F0003EF490958095709561957F4F8F4F9F4FC8
:1038000008950E945B1908F48FEF08950E945B19D8
:10381000880B990B08950F931F93CF93DF938230FA
:10382000910510F482E090E0E0911C05F0911D05F7
:1038300030E020E0B0E0A0E0309799F421153105A8
:1038400009F44AC0281B390B24303105D8F58A8188
:103850009B816115710589F1FB0193838283FE01D0
:1038600011C0408151810281138148175907E0F04E
:103870004817590799F4109761F012960C93129714
:1038800013961C933296CF01DF91CF911F910F9128
:10389000089500931C0510931D05F4CF21153105E3
:1038A00051F04217530738F0A901DB019A01BD011D
:1038B000DF01F801C1CFEF01F9CF90931D0580938F
:1038C0001C05CDCFFE01E20FF31F8193919322508F
:1038D000310939832883D7CF20911A0530911B05F0
:1038E000232B41F420910D0130910E0130931B05E3
:1038F00020931A0520910B0130910C0121153105FF
:1039000041F42DB73EB740910F0150911001241B97
:10391000350BE0911A05F0911B05E217F307A0F4AF
:103920002E1B3F0B2817390778F0AC014E5F5F4F15
:103930002417350748F04E0F5F1F50931B05409327
:103940001A05819391939FCFF0E0E0E09CCFCF9355
:10395000DF930097E9F0FC01329713821282A09165
:103960001C05B0911D05ED0130E020E01097A1F499
:1039700020813181820F931F20911A0530911B0500
:103980002817390709F061C0F0931B05E0931A0569
:10399000DF91CF910895EA01CE17DF07E8F54A815C
:1039A0005B819E0141155105B1F7E901FB83EA8373
:1039B00049915991C40FD51FEC17FD0761F480811F
:1039C00091810296840F951FE901998388838281F2
:1039D00093819B838A83F0E0E0E012968D919C9125
:1039E00013970097B9F52D913C911197CD0102964F
:1039F000820F931F20911A0530911B052817390754
:103A000039F6309751F510921D0510921C05B093B0
:103A10001B05A0931A05BCCFD383C283408151817B
:103A2000840F951FC817D90761F44E5F5F4F8881D7
:103A30009981480F591F518340838A819B819383C9
:103A400082832115310509F0B0CFF0931D05E09375
:103A50001C059ECFFD01DC01C0CF13821282D7CF9F
:103A6000B0E0A0E0E6E3FDE10C94871A8C0100973A
:103A700051F4CB010E940B1C8C01C801CDB7DEB7FD
:103A8000E0E10C94A31AFC01E60FF71F9C01225001
:103A90003109E217F30708F49DC0D901CD91DC91FB
:103AA0001197C617D70798F0C530D10530F3CE016E
:103AB00004978617970708F3C61BD70B2297C19365
:103AC000D1936D937C93CF010E94A71CD6CF5B014D
:103AD000AC1ABD0A4C018C0E9D1EA0911C05B09124
:103AE0001D05512C412CF12CE12C109731F58091C2
:103AF0001A0590911B058815990509F05CC04616BA
:103B0000570608F058C080910B0190910C01009766
:103B100041F48DB79EB740910F0150911001841B65
:103B2000950BE817F90708F055C0F0931B05E093D3
:103B30001A05F90171836083A0CF8D919C91119733
:103B400012966C90129713967C901397A815B9054E
:103B500059F56C0142E0C40ED11CCA14DB0420F1FB
:103B6000AC014A195B09DA011296159780F062825E
:103B7000738251834083D9016D937C93E114F104E6
:103B800071F0D7011396FC93EE93129776CF22969D
:103B90008C0F9D1FF90191838083F301EFCFF09388
:103BA0001D05E0931C0569CF4816590608F42C0141
:103BB0007D01D3019ACFCB010E940B1C7C010097A1
:103BC00049F0AE01B8010E94ED1DC8010E94A71C7A
:103BD000870153CF10E000E050CFFB01DC0102C0B1
:103BE00001900D9241505040D8F70895FB01DC013F
:0E3BF00001900D920020E1F70895F894FFCFA8
:103BFE00C703CDCCCC3D010100000000001E0580A6
:103C0E0000000040001400540000000000A8017BDA
:103C1E0001B0045101740161015201000000005A0B
:103C2E0003BA02E702A7031803F6020A0300000014
:103C3E00008E08BA02B004AF040D0A004465627526
:103C4E006720646174613A00537465702064656C1A
:103C5E0061793A2000207573005370656564207396
:103C6E00657420746F3A20006E616E00696E660096
:103C7E006F7666005361766520454550524F4D2054
:103C8E00646174613A20004C6F6164204545505266
:103C9E004F4D20646174613A200057454C434F4D9F
:103CAE0045005354455050455220434F4E54524FA9
:103CBE004C45520076312E30006D61696C3A0070C1
:103CCE006C616E65722E72656740676D61696C2EF0
:103CDE00636F6D0057656C636F6D6500534554558A
:103CEE00502052504D3A004E65772052504D3A3E7C
:103CFE00003C00526F7461746520454E4320746F12
:103D0E002041444A55535400507265737320454EFA
:103D1E004320746F204C4F4144004C4F4144454466
:103D2E002052504D3A2000526561647920746F2004
:103D3E00535441525400507265737320454E4320C4
:103D4E00746F205345545550005072657373204262
:103D5E00544E20746F20535441525400574F524BBF
:103D6E003A200064200052504D203D2000486F6CD8
:103D7E00642042544E20746F2050415553450050DC
:103D8E00726573732042544E20746F2053544F50FB
:103D9E000054696D653A2000486F6C642042544EA1
:103DAE0020746F20524553554D4500436F72726516
:103DBE006374656420746F206D696E3A206F75743C
:103DCE00206F662072616E67652066726F6D20309F
:103DDE002E3120746F20362E302072706D00436F9E
:103DEE007272656374656420746F206D61783A2019
:103DFE006F7574206F662072616E67652066726FD4
:103E0E006D20302E3120746F20362E302072706D62
:103E1E0000456E746572206C6F61646564206D6F11
:103E2E00646500456E746572207365747570206DDF
:103E3E006F646500456E74657220776F726B206DCE
:103E4E006F646500456E74657220706175736520D0
:063E5E006D6F64650000B9
:00000001FF
